:03000000020929C9
:10000B0002000EC0E0C0F0C083C082C0D075D0002B
:10001B00C000C001C002C003C004C005C006C007B9
:10002B00758A66758CFC750800E50875F003A424C9
:10003B0026F8860308E6FA08E64A4B6012E50875CF
:10004B00F003A42426F808E6FA08E6F912092305BA
:10005B0008E508C3940440D1D007D006D005D004DE
:10006B00D003D002D001D000D0D0D082D083D0F03A
:10007B00D0E0328B238A248925E4FFEF75F003A4AB
:10008B002426F8860308E6FA08E6F9E52385248397
:10009B008525826B7008E965827003EA65837002BF
:1000AB00C3220FBF04D5E4FFEF75F003A42426F899
:1000BB00860308E6FA08E64A4B7016AA24A925EF30
:1000CB0075F003A42426F8A62308A60208A601D3DC
:1000DB00220FBF04D3C322E4F50A780B7C00FD7B0F
:1000EB00FF7A0179BFFE7F181208D01201AD750996
:1000FB0018E50AC395095009740B250AF8E6F48034
:10010B0001E4FF120171050AE5092408FFE433FE3F
:10011B007C00EFB50A07ECB50603E4F50A7FC87E51
:10012B000012015780C8E5327004D2908002C29051
:10013B00C292D292C291D29174332532F8E6F4F581
:10014B00800532E532B40803E4F53222D3EF940094
:10015B00EE94004010007D027CC7DCFEDDFCEF1F3F
:10016B0070EA1E80E7227E0774322EF8E6FD7433A8
:10017B002EF8A605EE60031E80EE8F3322D2AFD28F
:10018B00A95389F0438901758A66758CFCD28C2240
:10019B000C260000000000000000000000000132EF
:1001AB000000C2B4D2B6C2B51201887BFF7A0179C6
:1001BB003102007EC3E7E7E7E7E7C3FF99000000E2
:0C01CB0081C3E7FF999999999981C3FFBE
:10080000E709F608DFFA8046E709F208DFFA803EDA
:1008100088828C83E709F0A3DFFA8032E309F608C7
:10082000DFFA8078E309F208DFFA807088828C832F
:10083000E309F0A3DFFA806489828A83E0A3F608E3
:10084000DFFA805889828A83E0A3F208DFFA804CBD
:1008500080D280FA80C680D4806980F28033801094
:1008600080A680EA809A80A880DA80E280CA8033FD
:1008700089828A83ECFAE493A3C8C582C8CCC58375
:10088000CCF0A3C8C582C8CCC583CCDFE9DEE78045
:100890000D89828A83E493A3F608DFF9ECFAA9F0C4
:1008A000EDFB2289828A83ECFAE0A3C8C582C8CC1A
:1008B000C583CCF0A3C8C582C8CCC583CCDFEADE33
:1008C000E880DB89828A83E493A3F208DFF980CC95
:1008D00088F0EF60010E4E60C388F0ED2402B4048E
:1008E0000050B9F582EB2402B4040050AF23234535
:1008F000822390085073BB010CE58229F582E583C1
:100900003AF583E0225006E92582F8E622BBFE068E
:10091000E92582F8E222E58229F582E5833AF5832A
:10092000E493228A838982E473787FE4F6D8FD75A4
:10093000813A0209700200E2E493A3F8E493A34031
:1009400003F68001F208DFF48029E493A3F854074A
:10095000240CC8C333C4540F4420C8834004F45645
:10096000800146F6DFE4800B01020408102040807D
:1009700090019BE47E019360BCA3FF543F30E509E6
:10098000541FFEE493A360010ECF54C025E060A87D
:1009900040B8E493A3FAE493A3F8E493A3C8C58210
:1009A000C8CAC583CAF0A3C8C582C8CAC583CADF7E
:0509B000E9DEE780BE56
:00000001FF
