:100000000200E275F008758200EF2FFFEE33FECD9F
:1000100033CDCC33CCC58233C5829BED9AEC99E5C8
:100020008298400CF582EE9BFEED9AFDEC99FC0F58
:10003000D5F0D6E4CEFBE4CDFAE4CCF9A88222B820
:1000400000C1B90059BA002DEC8BF084CFCECDFCA5
:10005000E5F0CBF97818EF2FFFEE33FEED33FDEC32
:1000600033FCEB33FB10D703994004EB99FB0FD81B
:10007000E5E4F9FA227818EF2FFFEE33FEED33FDB9
:10008000EC33FCC933C910D7059BE99A4007EC9BB8
:10009000FCE99AF90FD8E0E4C9FAE4CCFB2275F048
:1000A00010EF2FFFEE33FEED33FDCC33CCC833C859
:1000B00010D7079BEC9AE899400AED9BFDEC9AFC5F
:1000C000E899F80FD5F0DAE4CDFBE4CCFAE4C8F90E
:1000D00022EB9FF5F0EA9E42F0E99D42F0E89C4554
:1000E000F022787FE4F6D8FD758120020129020113
:1000F000DDE493A3F8E493A34003F68001F208DF64
:10010000F48029E493A3F85407240CC8C333C454DF
:100110000F4420C8834004F456800146F6DFE48093
:100120000B010204081020408090024BE47E0193F2
:1001300060BCA3FF543F30E509541FFEE493A36065
:10014000010ECF54C025E060A840B8E493A3FAE4C0
:1001500093A3F8E493A3C8C582C8CAC583CAF0A311
:10016000C8C582C8CAC583CADFE9DEE780BE8F1F63
:100170008E1E8D1D8C1CE4F52074122520F8E4F6EB
:100180000520E520B408F2752007E47B0AFAF9F8A7
:10019000AF1FAE1EAD1DAC1C12003F74082BF8E65D
:1001A000FF74122520F8A607AF1FAE1EAD1DAC1CB4
:1001B000E47B0AFAF9F812003F8F1F8E1E8D1D8C0A
:1001C0001CE5206017E4FFFEFDFCAB1FAA1EA91D65
:1001D000A81CC31200D16004152080AE22751A64D9
:1001E000751B64120270AF1BE4FCFDFE12016EE58C
:1001F0001A7017E51BD394004010151B751A64AFD5
:100200001BE4FCFDFE12016E8002151A1202118021
:10021000DEE4F51C7412251CF8E6FDAF1C12026228
:100220007F017E00120231051CE51CC3940840E4E6
:1002300022D3EF9400EE94004010007D027CC7DCD6
:10024000FEDDFCEF1F70EA1E80E7220A083F065B16
:100250004F666D7D077F6F081200000000000000F0
:100260000000EF33333354F85390C742908D80220F
:05027000C2B6C2B42279
:00000001FF
