:10000000020003787FE4F6D8FD75811102004A02F0
:10001000008FE493A3F8E493A34003F68001F20871
:10002000DFF48029E493A3F85407240CC8C333C435
:10003000540F4420C8834004F456800146F6DFE4A0
:10004000800B01020408102040809000E4E47E014F
:100050009360BCA3FF543F30E509541FFEE493A313
:1000600060010ECF54C025E060A840B8E493A3FA25
:10007000E493A3F8E493A3C8C582C8CAC583CAF0B1
:10008000A3C8C582C8CAC583CADFE9DEE780BEC28D
:10009000B6C2B47D057F051200D11200B37D027F88
:1000A000061200D11200B3E4FD7F071200D1120046
:1000B000B380E07F017E00D3EF9400EE9400401007
:1000C000007D027CC7DCFEDDFCEF1F70EA1E80E7CE
:1000D00022EF33333354F85390C7429074082DF80D
:1000E000E6F580220A083F065B4F666D7D077F6F4D
:0100F000000F
:00000001FF
