:1000000002022175A0FE20A4107F0A7E0012036068
:1000100020A40630A4FD7F052220A5107F0A7E00C3
:1000200012036020A50630A5FD7F062220A6107FC2
:100030000A7E0012036020A60630A6FD7F0722205C
:10004000A7107F0A7E0012036020A70630A7FD7F5D
:10005000082275A0FD20A4107F0A7E0012036020F4
:10006000A40630A4FD7F092220A5107F0A7E00127D
:10007000036020A50630A5FD7F0A2220A6107F0A76
:100080007E0012036020A60630A6FD7F0B2220A76B
:10009000107F0A7E0012036020A70630A7FD7F0CA8
:1000A0002275A0FB20A4107F0A7E0012036020A40A
:1000B0000630A4FD7F0D2220A5107F0A7E001203CA
:1000C0006020A50630A5FD7F0E2220A6107F0A7EA7
:1000D0000012036020A60630A6FD7F0F2220A71085
:1000E0007F0A7E0012036020A70630A7FD7F102242
:1000F00075A0F720A4107F0A7E0012036020A406DA
:1001000030A4FD7F112220A5107F0A7E001203601B
:1001100020A50630A5FD7F122220A6107F0A7E00B2
:1001200012036020A60630A6FD7F132220A7107FB1
:100130000A7E0012036020A70630A7FD7F14227FED
:10014000002275F008758200EF2FFFEE33FECD33ED
:10015000CDCC33CCC58233C5829BED9AEC99E58238
:1001600098400CF582EE9BFEED9AFDEC99FC0FD5C4
:10017000F0D6E4CEFBE4CDFAE4CCF9A88222B800B4
:10018000C1B90059BA002DEC8BF084CFCECDFCE57F
:10019000F0CBF97818EF2FFFEE33FEED33FDEC33A3
:1001A000FCEB33FB10D703994004EB99FB0FD8E528
:1001B000E4F9FA227818EF2FFFEE33FEED33FDEC71
:1001C00033FCC933C910D7059BE99A4007EC9BFC67
:1001D000E99AF90FD8E0E4C9FAE4CCFB2275F010F3
:1001E000EF2FFFEE33FEED33FDCC33CCC833C81018
:1001F000D7079BEC9AE899400AED9BFDEC9AFCE846
:1002000099F80FD5F0DAE4CDFBE4CCFAE4C8F92292
:10021000EB9FF5F0EA9E42F0E99D42F0E89C45F044
:1002200022787FE4F6D8FD75811F02026802031C64
:10023000E493A3F8E493A34003F68001F208DFF40B
:100240008029E493A3F85407240CC8C333C4540F83
:100250004420C8834004F456800146F6DFE4800B56
:10026000010204081020408090037AE47E0193602C
:10027000BCA3FF543F30E509541FFEE493A3600183
:100280000ECF54C025E060A840B8E493A3FAE493ED
:10029000A3F8E493A3C8C582C8CAC583CAF0A3C89B
:1002A000C582C8CAC583CADFE9DEE780BE8F1E8E5D
:1002B0001D8D1C8C1BE4F51F7412251FF8E4F60538
:1002C0001FE51FB408F2751F07E47B0AFAF9F8AFBF
:1002D0001EAE1DAD1CAC1B12017E74082BF8E6FF90
:1002E0007412251FF8A607AF1EAE1DAD1CAC1BE493
:1002F0007B0AFAF9F812017E8F1E8E1D8D1C8C1B55
:10030000E51F6017E4FFFEFDFCAB1EAA1DA91CA89B
:100310001BC31202106004151F80AE22E4F51A12EE
:10032000039FAF1AE4FCFDFE1202AD1200038F1A08
:10033000E51A6007E4FCFDFE1202AD12034080EBFB
:10034000E4F51B7412251BF8E6FDAF1B1203917F29
:10035000017E00120360051BE51BC3940840E422E4
:10036000D3EF9400EE94004010007D027CC7DCFEC9
:10037000DDFCEF1F70EA1E80E7220A083F065B4F94
:10038000666D7D077F6F081200000000000000000E
:1003900000EF33333354F85390C742908D8022C21C
:0403A000B6C2B4220B
:00000001FF
