:0A0000000216CCC296D297D29622C7
:10000B00020571E562244EF8E6056222784B300753
:10001B0002784EE475F001120E24020DBE2000EBA7
:10002B007F2ED2008018EF540F2490D43440D4FF8D
:10003B0030040BEF24BFB41A0050032461FFE563B7
:10004B00600215630566E5667002056530070D787D
:10005B004BE475F001120E24EF020E040207A57497
:10006B0003D2078003E4C207F5628B4B8A4C894DA0
:10007B00E4F563F565F566E56360077F20120049DB
:10008B0080F57564FFC201C200C202C203C205C281
:10009B0006C208120017FF700D3007057F00120013
:1000AB005AAF66AE6522B4255FC2D5C204120017E3
:1000BB00FF24D0B40A00501A75F00A786330D505C6
:1000CB0008B6FF0106C6A426F620D5047002D2039B
:1000DB0080D924CFB41A00EF5004C2E5D204020336
:1000EB0047D20180C6D20080C0D20280BCD2D5805C
:1000FB00BAD20580B47F201200492002077401B5E3
:10010B00630040F112000EFF120049020082D20878
:10011B00D206809512000EFB12000EFA12000EF999
:10012B004A4B7006793E7A047BFF20022EE5636012
:10013B002A7E008E82758300120DD760060EEE6547
:10014B006470F0C2D5EBC0E0EAC0E0E9C0E0EE12AB
:10015B0003A7D0E0F9D0E0FAD0E0FB120DBEFF60B0
:10016B00AAEBC0E0EAC0E0E9C0E0120049D0E0240D
:10017B0001F9D0E03400FAD0E0FBE5640460DCD593
:10018B0064D98087D20280A212038A60F7E564707B
:10019B000104120A86A964600DE564600914F56414
:1001AB00120431EF60F3EA30E702F404C39950779D
:1001BB00EAF425640430E701E404F564800D1203CE
:1001CB008A60C1EA05642564120A86EA7861F63012
:1001DB00E701E4256404D56404200501141203A788
:1001EB00E4C0E01204317861E6601320E70714F6EF
:1001FB00120031802204F6D0E014C0E07F00120020
:10020B0031E56460071200281564800B300503127A
:10021B000028D0E0020082D0E00480C512038A607F
:10022B00A0E56404120A867861EAF6E5642005020B
:10023B0060010424041203A774FF04C0E01204310C
:10024B00120031E5642005026003120028D0E0B5EE
:10025B0064E87F4512003B7861E67F2B30E7047F33
:10026B002DF404C0E0120049D0E075F00A84C0F010
:10027B00120032D0E0120032020082791080027933
:10028B0008C206C2088008D2D5790A8004790AC24E
:10029B00D5E564047002F564E4FAFDFEFF12000E6E
:1002AB00FC7B0820011312000EFD7B1030000A129C
:1002BB00000EFE12000EFF7B20EC3382D592D55040
:1002CB0013C3E43000069FFFE49EFEE42001039D70
:1002DB00FDE49CFCE4CBF8C201EC700CCFCECDCC92
:1002EB00E824F8F870F38017C3EF33FFEE33FEED1D
:1002FB0033FDEC33FCEB33FB994002FB0FD8E9EBFE
:10030B00300105F8D0E0C448B201C0E00AEC4D4E14
:10031B004F78207B0070C2EAB5640040BCC0E0128D
:10032B0003A9D0F0D0E0200104C4C0E0C4B201C0E6
:10033B00F0120032D0F0D5F0EB020082120E340135
:10034B001F5302865800F04C00EC42028A4F029277
:10035B004402924901054302985501C946022745BB
:10036B00019347045E5000F42D00F82E011B2B0067
:10037B00FC2301192004472A00B44800000113E5AF
:10038B0064B4FF0375640612000EFC12000EFD121E
:10039B00000EFE12000EFF785A020AB5790AA2D59A
:1003AB00200314300509B910020404B9080104A292
:1003BB00D52006025001042002689202B56300505A
:1003CB0034C0E07F203003197F30A2027206720521
:1003DB00500F120400C202C206C205C2087F308051
:1003EB000F300503E9C0E0120049300503D0E0F9F6
:1003FB00D0E0B563CC3005177F30B9100C12004933
:10040B007F583004077F788003B908031200493006
:10041B0002057F2D0200497F202008F87F2B200644
:10042B00F322920280CF7F00B407005005245AF8C4
:10043B00E6FF22286E756C6C2900D20112000E307B
:10044B0001F8C201786330D50108F60200B42D50D3
:10045B0043495812000E2403B405004001E49004F4
:10046B00599312003A743A12003AD203756304029C
:10047B0002868B4B8A4C894D8D4EE54F25E012073A
:10048B00CCE4F550AB4BAA4CA94D8550827583003B
:10049B00120DD7FF601DC37410954EFEE550C39E21
:1004AB005011EF75F010A424DAF9740C120EAC0590
:1004BB005080D1E54F25E0041207CCE4F550AB4B4F
:1004CB00AA4CA94D855082758300120DD7FF601D74
:1004DB00C37410954EFEE550C39E5011EF75F0108E
:1004EB00A424E2F9740C120EAC055080D122120E2A
:1004FB006012064212074D8F341205E18F388E378A
:10050B008D368C357BFF7A11792EE4F54FFD120475
:10051B007DAF34EF3395E0FEFDFCE4F53D753E0118
:10052B001206D2754EFF754F1175503285385485B2
:10053B0037538536528535517B007A00792312006B
:10054B006A7BFF7A117937754F02E4FD12047D7BCC
:10055B00007A007923754F03E4FD12047D7FE87E5A
:10056B0003120E7E808EC0E0C0F0C083C082C0D06C
:10057B0075D000C000C001C002C003C004C005C0DC
:10058B0006C007758A66758CFC752200E52275F02E
:10059B0003A42408F8860308E6FA08E64A4B60121F
:1005AB00E52275F003A42408F808E6FA08E6F91228
:1005BB000E5A0522E522C3940440D1D007D006D0B1
:1005CB0005D004D003D002D001D000D0D0D082D03F
:1005DB0083D0F0D0E032120E987FCC1216437F44BA
:1005EB00121643120E987FCC1216437FBE1216437F
:1005FB001207198F391207198F3AE539540FFCE49A
:10060B00120A08E4FBFA7980783D1208F8C004C09E
:10061B0005C006C007E53A75F010A4FFE539C454D0
:10062B000FFDE5F0FCEF4DFDEC120A03D003D002F9
:10063B00D001D000020807783A7C007D007BFF7A5E
:10064B001179107E007F10120D98784A7C007D0086
:10065B007BFF7A1179207E007F02120D987B007A46
:10066B0000794A7D02120ED1E4F5397B007A0079CC
:10067B003A7D10120EB30539E539C3944040EC2294
:10068B008B548A5589568D57120EB87F7812077C7A
:10069B001207F17F003000027F4012077C1207F136
:1006AB00E4F558E558C39557501AAB54AA55A956BB
:1006BB00855882758300120DD7FF12077C1207F144
:1006CB00055880DF0200038F3C8E3B8D3A8C3978C6
:1006DB003F7C007D007BFF7A1179227E007F0C121C
:1006EB000D98754EFF754F0E7550D6853C54853B56
:1006FB0053853A528539517B007A00793F12006A53
:10070B007B007A00793F853E4FAD3D02047DE4F5D9
:10071B003BF53DF53CC2ECD2EC120EC7A2ECE43338
:10072B00F53DAF3CA807088002C333D8FCF53D422A
:10073B003B120ECCD2EC053CE53CC3940840D6AF43
:10074B003B22120E987FCC1216437F441216431293
:10075B000E987FCC1216437FBE1216431207198FC9
:10076B0039120719EFC454F0FFE539C4540F4FFF8A
:10077B0022AD07E4FC7E007480A804088006CEA29C
:10078B00E713CE13D8F8FFEDFBEF5BD37001C392E9
:10079B0096D297C2970CBC08DC22EFB40A07740DF3
:1007AB001207B0740A309811A899B8130CC298307C
:1007BB0098FDA899C298B811F63099FDC299F59990
:1007CB0022FFE54E75F008A4FDEF24B0F551ED5472
:1007DB000FF552EDC4540F2410F5537B007A0079BA
:1007EB00517D03020ED1D296D297A2969201C29757
:0307FB00A2012236
:10080000020A71E86480F8E933E83360110460F0AB
:10081000ED33EC337009E8FCE9FDEAFEEBFF22045E
:1008200060DED3EB9FEA9EE99DE8C2E78CF0C2F759
:1008300095F0400CE8CCF8E9CDF9EACEFAEBCFFB25
:10084000120A3C85D0F05804700320D5B3E8047038
:10085000075002B2D5020A7B92D5EC0460F7E4CCD3
:10086000C0E0C398F8603B94186008400DD0E0FBEE
:10087000020A53E4FBFAC9FC8028E830E406E4C924
:10088000FBE4CAFCE830E305E4C9CACBFCE8540742
:100890006010F8C3E913F9EA13FAEB13FBEC13FC4D
:1008A000D8F130F52FC3E49CFCEF9BFFEE9AFEEDF0
:1008B00099FDD0E0FBEF4E4D4C701222DB03020A93
:1008C00078EC2CFCEF33FFEE33FEED33FDED30E73B
:1008D000EB020A53EF2BFFEE3AFEED39FDD0E0FBC1
:1008E00050130BBB0003020A7BED13FDEE13FEEF6A
:1008F00013FFEC13FC020A53EC4D6011E84970172A
:10090000ED33EC3304600DE4FCFFFEFD22E933E837
:10091000330470F8020A71120A3C58046009E4CCEE
:1009200024815006285009020A7B284003020A78D5
:10093000C0E0EB4A7044B98006D0E0FB020A67EFE2
:100940004E701CBD8008EBFFEAFEE9FD80EBE98DEF
:10095000F0A4FEE5F00209E1E9CDF9EAFEEBFFEFD4
:1009600089F0A4FCE5F0CE89F0A42EFFE435F0CDAB
:1009700089F0A42DFEE435F08067EF4E7005BD8050
:10098000D780C3EF8BF0A4ACF0EE8BF0A42CFCE48A
:1009900035F0F8EF8AF0A42CE5F038FCE433CB8D89
:1009A000F0A42CFCE5F03BF8EE8AF0A42CFCE5F07A
:1009B00038F8E433CF89F0A42CFCE5F038CF3400CC
:1009C000CE89F0A42FFFE5F03EFEE433C98DF0A4FC
:1009D0002EFEE5F039CD8AF0A42FFFE5F03EFEE4CF
:1009E0003DFD33D0E0FB50070BBB000F020A7BEC50
:1009F0002CFCEF33FFEE33FEED33FD020A5375F0AE
:100A000020800E75F010800575F0087D007E007F57
:100A1000003392D530D503120E16EC334010EF336D
:100A2000FFEE33FEED33FDEC33FCD5F0ED22E5F0C7
:100A3000247EA2D513CC92E7CDCEFF22E9D2E7C91E
:100A400033E833F892D5EDD2E7CD33EC33FC5002E6
:100A5000B2D522EC30E7100FBF000C0EBE00080D1F
:100A6000BD00040BEB6014A2D5EB13FCED92E7FD87
:100A70002274FFFCFDFEFF22E480F8A2D574FF1370
:100A8000FC7D80E480EFF920E72824F95003790702
:100A9000E4F42402FB18DBFDE624FB5014E9600DAE
:100AA000E4F618E604F6B40A08E4F6D9F57401F69B
:100AB0000A22C2D522ED33EC3392D5FA602AB4FF74
:100AC00033EDC2E77BFF60067A0A79DAE4227A0A1C
:100AD00079E320D5047A0A79DE224E614E002B4953
:100AE0004E46002D494E4600E47A08F608DAFC7BB3
:100AF00000740722E8C0E0ECC0E0EDC0E0EEC0E02A
:100B0000EFC0E0EA75F010A4CAABF075F04DA42B6D
:100B1000FBE435F0FCEA2410FAEB34C5FBEC34D9E5
:100B2000FCEDC2E7FF75F056A4F42411C5F0F434CF
:100B3000C58FF0A42AE5F03BE43CF620E714120C44
:100B400088D0E0FFD0E0FED0E0FDD0E0FC120BBB8F
:100B50008014F404120C88D0E0FFD0E0FED0E0FD59
:100B6000D0E0FC1208F8D0E0F8E6FAEDD2E7CD3399
:100B7000EC332482FBE4C3CF33CFCE33CECD33CDA1
:100B800033DBF37B0775F00A846004F6081B0AE583
:100B9000F0F6088FF0740AA4FFACF08EF0740AA48B
:100BA0002CFEACF050010C8DF0740AA42CFDE43541
:100BB000F0F608DBDE740722020A7BEC5D046005B8
:100BC000E859047003020A71120A3C580460F6ECFA
:100BD0004860F2EC7004FDFEFF22C860DB2481C88F
:100BE0005009C39860025006020A789850CAF582EC
:100BF000E9294B4A7005AB82020A6775F0007C1A3E
:100C00007880C3EF9BEE9AED99400DC3EF9BFFEE0A
:100C10009AFEED99FDE842F0DC23ACF0D0E0FFD085
:100C2000E0FED0E0FDAB8220E7101BEB60BAEC2CBD
:100C3000FCEF33FFEE33FEED33FD020A53E803F819
:100C400030E705C0F075F000EF2FFFEE33FEED3317
:100C5000FD40B830E7C280AA3F800000412000007C
:100C600042C80000447A0000461C400047C35000C0
:100C7000497424004B1896804CBEBC205A0E1BCAE7
:100C80006753C21C749DC5AEFB60065407601C23ED
:100C900023120CB6EB54386009120CA2120CB112DC
:100CA00008F8ECF8EDF9EEFAEFCB22EB120CB1807C
:100CB000F1543803241C900C58FE93FC0EEE93FD67
:100CC0000EEE930ECE93FF22E709F608DFFA804678
:100CD000E709F208DFFA803E88828C83E709F0A3F7
:100CE000DFFA8032E309F608DFFA8078E309F208D8
:100CF000DFFA807088828C83E309F0A3DFFA8064D6
:100D000089828A83E0A3F608DFFA805889828A8381
:100D1000E0A3F208DFFA804C80D280FA80C680D44B
:100D2000806980F28033801080A680EA809A80A853
:100D300080DA80E280CA803389828A83ECFAE49385
:100D4000A3C8C582C8CCC583CCF0A3C8C582C8CC13
:100D5000C583CCDFE9DEE7800D89828A83E493A333
:100D6000F608DFF9ECFAA9F0EDFB2289828A83EC20
:100D7000FAE0A3C8C582C8CCC583CCF0A3C8C5829D
:100D8000C8CCC583CCDFEADEE880DB89828A83E4D5
:100D900093A3F208DFF980CC88F0EF60010E4E607B
:100DA000C388F0ED2402B4040050B9F582EB2402AC
:100DB000B4040050AF2323458223900D1873BB0168
:100DC0000689828A83E0225002E722BBFE02E322E8
:100DD00089828A83E49322BB010CE58229F582E5AE
:100DE000833AF583E0225006E92582F8E622BBFE2D
:100DF00006E92582F8E222E58229F582E5833AF5C3
:100E000083E49322BB010689828A83F0225002F791
:100E100022BBFE01F322C3E49FFFE49EFEE49DFD9E
:100E2000E49CFC22FAE6FB0808E6F925F0F618E651
:100E3000CA3AF622D083D082F8E4937012740193F8
:100E4000700DA3A393F8740193F5828883E47374FF
:100E500002936860EFA3A3A380DF8A838982E4738F
:100E600078397C007D007BFF7A11790A7E007F064D
:100E7000120D987B007A0079397D06020ED1D3EFEE
:100E80009400EE94004010007D027CC7DCFEDDFC87
:100E9000EF1F70EA1E80E722C2EC120EC1D2EC12E4
:100EA0000ECCA2EC9200120EC1A2002235F0FA7B09
:100EB000FF7D08D20002068BD297D296C296C297C7
:100EC00022007FDADFFE227F02DFFE227F19DFFEB3
:100ED00022C20002068B256C6400000000000000A6
:100EE00000000000000000000000000000F800000A
:100EF0000000000000333000000000100C06100C51
:100F00000600000000000000000040C07840C078EB
:100F10004000043F04043F040400007088FC0830D3
:100F20000000001820FF211E0000F008F000E0186B
:100F3000000000211C031E211E0000F00888700024
:100F400000001E2123241927211010160E00000076
:100F500000000000000000000000000000E0180495
:100F60000200000000071820400000020418E00002
:100F700000000040201807000000404080F0804042
:100F800040000202010F01020200000000F0000018
:100F900000000101011F010101000000000000002C
:100FA000000080B0700000000000000000000000A1
:100FB000000000010101010101010000000000002A
:100FC00000000030300000000000000000008060E1
:100FD0001804006018060100000000E01008081066
:100FE000E000000F102020100F00001010F800008B
:100FF00000000020203F2020000000700808088822
:1010000070000030282422213000003008888848F1
:1010100030000018202020110E000000C02010F821
:10102000000000070424243F240000F808888808F2
:1010300008000019212020110E0000E010888818F7
:101040000000000F112020110E0000380808C838D9
:1010500008000000003F00000000007088080888B9
:101060007000001C222121221C0000E01008081042
:10107000E0000000312222110F00000000C0C0007B
:101080000000000000303000000000000080000080
:101090000000000080600000000000008040201080
:1010A0000800000102040810200040404040404079
:1010B00040000404040404040400000810204080DC
:1010C0000000002010080402010000704808080811
:1010D000F0000000003036010000C030C828E810E1
:1010E000E0000718272423140B000000C038E0009C
:1010F0000000203C23020227382008F888888870E6
:101100000000203F202020110E00AEA1C88D14AF9A
:1011100000000000000000000000000000000000CF
:10112000200000000000000000000000000041411D
:0B1130004100252E32660042424200C2
:101643008F3BE4F53CC2EC120EC7E53B1392ECE58D
:101653003BC313F53B120ECCD2EC053CE53CC394E3
:041663000840E22237
:0C16CC00787FE4F6D8FD7581660204F911
:00000001FF
