:100000000202413002FD8F99C202220202CDE4FFBA
:10001000FE120228600C0FEF70010E09E970F20A5F
:1000200080EF22020407BB010CE58229F582E583FB
:100030003AF583E0225006E92582F8E622BBFE0667
:10004000E92582F8E222E58229F582E5833AF58303
:10005000E49322BB010689828A83F0225002F722B0
:10006000BBFE01F322F8BB010DE58229F582E58391
:100070003AF583E8F0225006E92582C8F622BBFE55
:1000800005E92582C8F2228A838982E473E3F5F0C8
:1000900009E208B5F06D606B80F3E3F5F009E6085E
:1000A000B5F060605E80F387F009E608B5F0546053
:1000B0005280F487F009E208B5F048604680F48881
:1000C000828C8387F009E0A3B5F038603680F4882D
:1000D000828C8387F009E493A3B5F027602580F331
:1000E00088828C83E3F5F009E0A3B5F016601480F4
:1000F000F388828C83E3F5F009E493A3B5F0046000
:100100000280F20201B8808580E7808E80D2803C38
:100110008015806C807E809B80B5808B80A1804F15
:100120008070803A0201C489828A83ECFAE493F5F4
:10013000F0A3C8C582C8CCC583CCE493A3C8C5824C
:10014000C8CCC583CCB5F070606E80E189828A83AB
:10015000E493F5F0A3E208B5F05E605C80F289827A
:100160008A83E0F5F0A3E608B5F04D604B80F38993
:10017000828A83E0F5F0A3E208B5F03C603A80F3B0
:1001800089828A83E493F5F0A3E608B5F02A602813
:1001900080F2805389828A83ECFAE493F5F0A3C855
:1001A000C582C8CCC583CCE0A3C8C582C8CCC583F2
:1001B000CCB5F004600280E27FFFB5F0020F224070
:1001C000027F012289828A83ECFAE0F5F0A3C8C598
:1001D00082C8CCC583CCE0A3C8C582C8CCC583CCBB
:1001E000B5F0D560D380E389828A83ECFAE0F5F03C
:1001F000A3C8C582C8CCC583CCE493A3C8C582C8B4
:10020000CCC583CCB5F0B160AF80E288F0ED2402BC
:10021000B4040050A3F582EB2402B40400509923E7
:100220002345822390010673BB010689828A83E0FD
:10023000225002E722BBFE02E32289828A83E493F2
:1002400022787FE4F6D8FD75813702028802033DEB
:10025000E493A3F8E493A34003F68001F208DFF4EB
:100260008029E493A3F85407240CC8C333C4540F63
:100270004420C8834004F456800146F6DFE4800B36
:100280000102040810204080900456E47E0193602F
:10029000BCA3FF543F30E509541FFEE493A3600163
:1002A0000ECF54C025E060A840B8E493A3FAE493CD
:1002B000A3F8E493A3C8C582C8CAC583CAF0A3C87B
:1002C000C582C8CAC583CADFE9DEE780BEC0E0C018
:1002D000F0C083C082C0D075D000C000C001C00291
:1002E000C003C004C005C006C007758A66758CFCD3
:1002F000750800E50875F003A42421F8860308E6D4
:10030000FA08E64A4B6012E50875F003A42421F8C8
:1003100008E6FA08E6F91200870508E508C3940420
:1003200040D1D007D006D005D004D003D002D001F0
:10033000D000D0D0D082D083D0F0D0E032C2EE1244
:1003400004387B007A00790912039650F578097C0D
:10035000007D007BFF7A04796012020BEF700AF5D2
:10036000807BFF7A047963801B78097C007D007BA9
:10037000FF7A04797012020BEF700E7580FF7BFF1D
:100380007A0479741203D580B9B2877BFF7A047935
:10039000821203D580AC8B138A148915300034E4A3
:1003A000FFEFC3952D5016742E2FF8E6AB13AA1449
:1003B000A9158F827583001200650F80E4AB13AA24
:1003C00014A9158F82758300E4120065C200E4F55C
:1003D0002DD322C3228B138A14891512000E8E1678
:1003E0008F17E4FDFCC3ED9517EC95165018AB1371
:1003F000AA14A9158D828C83120026FF1200030D0A
:10040000BD00010C80DF22C0E0C0D075D000C0006C
:10041000309904D202C299309817E599640A600BAA
:10042000742E252DF8A699052D8002D200D201C286
:1004300098D000D0D0D0E032C29FD29E53877F5355
:10044000890F438920758DFD758BFDD28ED29CC29C
:100450009DD2AFD2AC22C101C182C100012D0000EA
:100460004F4E004C4544204953204F4E202121003F
:100470004F4646004C4544204953204F46462021D4
:1004800021004552524F52204552524F5220455260
:06049000524F5221200032
:00000001FF
