:0900000002000E8A838982E47378
:10000B0002009A787FE4F6D8FD75811B0200550239
:10001B0001B3E493A3F8E493A34003F68001F20841
:10002B00DFF48029E493A3F85407240CC8C333C42A
:10003B00540F4420C8834004F456800146F6DFE495
:10004B00800B01020408102040809001FDE47E012A
:10005B009360BCA3FF543F30E509541FFEE493A308
:10006B0060010ECF54C025E060A840B8E493A3FA1A
:10007B00E493A3F8E493A3C8C582C8CAC583CAF0A6
:10008B00A3C8C582C8CAC583CADFE9DEE780BEC084
:10009B00E0C0F0C083C082C0D075D000C000C001EA
:1000AB00C002C003C004C005C006C007758A6675D0
:1000BB008CFC751800E51875F003A42408F886036A
:1000CB0008E6FA08E64A4B6012E51875F003A4241B
:1000DB0008F808E6FA08E6F91200030518E518C354
:1000EB00940440D1D007D006D005D004D003D00261
:1000FB00D001D000D0D0D082D083D0F0D0E0328BE2
:10010B00198A1A891BE4FFEF75F003A42408F886FB
:10011B000308E6FA08E6F9E519851A83851B826B55
:10012B007008E965827003EA65837002C3220FBF12
:10013B0004D5E4FFEF75F003A42408F8860308E662
:10014B00FA08E64A4B7016AA1AA91BEF75F003A41E
:10015B002408F8A61908A60208A601D3220FBF048B
:10016B00D3C3228B198A1A891BE4FFEF75F003A402
:10017B002408F8860308E6FA08E6F9E519851A83D8
:10018B00851B826B7008E965827003EA65837012C8
:10019B00EF75F003A42408F87600087600087600C3
:1001AB00D3220FBF04C5C3221202427BFF7A02790E
:1001BB001412010A7BFF7A02792B12010A7BFF7A58
:1001CB0002795512010A7FB87E0B1201E37BFF7A8D
:1001DB0002795512016E80FED3EF9400EE9400402D
:1001EB0010007D027CC7DCFEDDFCEF1F70EA1E8079
:1001FB00E7220C08000000000000000000000000D7
:10020B00021403E8021601F400E51545147008B258
:10021B00807514037515E8E5151515700215142274
:10022B00E51745167008B2877516017517F4E517B3
:10023B0015177002151622D2AFD2A95389F0438934
:0D024B0001758A66758CFCD28C22B2EE2201
:00000001FF
