:10000000020A20F920E72824F950037907E4F424B0
:1000100002FB18DBFDE624FB5014E9600DE4F61842
:10002000E604F6B40A08E4F6D9F57401F60A22C229
:10003000D522ED33EC3392D5FA602AB4FF33EDC20A
:10004000E77BFF60067A007957E4227A0079602026
:10005000D5047A00795B224E614E002B494E460052
:100060002D494E4600E47A08F608DAFC7B00740756
:1000700022E8C0E0ECC0E0EDC0E0EEC0E0EFC0E0A0
:10008000EA75F010A4CAABF075F04DA42BFBE43573
:10009000F0FCEA2410FAEB34C5FBEC34D9FCEDC2D9
:1000A000E7FF75F056A4F42411C5F0F434C58FF0C1
:1000B000A42AE5F03BE43CF620E714120403D0E068
:1000C000FFD0E0FED0E0FDD0E0FC1203368014F457
:1000D00004120403D0E0FFD0E0FED0E0FDD0E0FC4D
:1000E00012022DD0E0F8E6FAEDD2E7CD33EC33245E
:1000F00082FBE4C3CF33CFCE33CECD33CD33DBF36E
:100100007B0775F00A846004F6081B0AE5F0F60820
:100110008FF0740AA4FFACF08EF0740AA42CFEAC2D
:10012000F050010C8DF0740AA42CFDE435F0F608B3
:10013000DBDE740722020478E86480F8E933E833F0
:1001400060110460F0ED33EC337009E8FCE9FDEA7E
:10015000FEEBFF220460DED3EB9FEA9EE99DE8C23E
:10016000E78CF0C2F795F0400CE8CCF8E9CDF9EA5D
:10017000CEFAEBCFFB12044385D0F0580470032075
:10018000D5B3E80470075002B2D502048292D5ECD0
:100190000460F7E4CCC0E0C398F8603B94186008B2
:1001A000400DD0E0FB02045AE4FBFAC9FC8028E8C9
:1001B00030E406E4C9FBE4CAFCE830E305E4C9CA5C
:1001C000CBFCE854076010F8C3E913F9EA13FAEB23
:1001D00013FBEC13FCD8F130F52FC3E49CFCEF9B30
:1001E000FFEE9AFEED99FDD0E0FBEF4E4D4C701204
:1001F00022DB0302047FEC2CFCEF33FFEE33FEED39
:1002000033FDED30E7EB02045AEF2BFFEE3AFEED43
:1002100039FDD0E0FB50130BBB0003020482ED1349
:10022000FDEE13FEEF13FFEC13FC02045AEC4D60DD
:1002300011E8497017ED33EC3304600DE4FCFFFE68
:10024000FD22E933E8330470F802047812044358BD
:10025000046009E4CC248150062850090204822855
:10026000400302047FC0E0EB4A7044B98006D0E04E
:10027000FB02046EEF4E701CBD8008EBFFEAFEE946
:10028000FD80EBE98DF0A4FEE5F0020316E9CDF95F
:10029000EAFEEBFFEF89F0A4FCE5F0CE89F0A42E96
:1002A000FFE435F0CD89F0A42DFEE435F08067EF52
:1002B0004E7005BD80D780C3EF8BF0A4ACF0EE8B01
:1002C000F0A42CFCE435F0F8EF8AF0A42CE5F0382B
:1002D000FCE433CB8DF0A42CFCE5F03BF8EE8AF087
:1002E000A42CFCE5F038F8E433CF89F0A42CFCE52D
:1002F000F038CF3400CE89F0A42FFFE5F03EFEE4C5
:1003000033C98DF0A42EFEE5F039CD8AF0A42FFF7D
:10031000E5F03EFEE43DFD33D0E0FB50070BBB00B3
:100320000F020482EC2CFCEF33FFEE33FEED33FDC5
:1003300002045A020482EC5D046005E8590470036B
:10034000020478120443580460F6EC4860F2EC7042
:1003500004FDFEFF22C860DB2481C85009C39860F9
:1003600002500602047F9850CAF582E9294B4A7070
:1003700005AB8202046E75F0007C1A7880C3EF9B97
:10038000EE9AED99400DC3EF9BFFEE9AFEED99FDBD
:10039000E842F0DC23ACF0D0E0FFD0E0FED0E0FD9E
:1003A000AB8220E7101BEB60BAEC2CFCEF33FFEEC6
:1003B00033FEED33FD02045AE803F830E705C0F0E0
:1003C00075F000EF2FFFEE33FEED33FD40B830E760
:1003D000C280AA3F8000004120000042C8000044C3
:1003E0007A0000461C400047C35000497424004B6B
:1003F0001896804CBEBC205A0E1BCA6753C21C7490
:100400009DC5AEFB60065407601C2323120431EB2C
:100410005438600912041D12042C12022DECF8ED60
:10042000F9EEFAEFCB22EB12042C80F154380324BE
:100430001C9003D3FE93FC0EEE93FD0EEE930ECEB6
:1004400093FF22E9D2E7C933E833F892D5EDD2E73A
:10045000CD33EC33FC5002B2D522EC30E7100FBFA5
:10046000000C0EBE00080DBD00040BEB6014A2D5FD
:10047000EB13FCED92E7FD2274FFFCFDFEFF22E48E
:1004800080F8A2D574FF13FC7D80E480EFBB0106E9
:1004900089828A83E0225002E722BBFE02E322899E
:1004A000828A83E49322BB010CE58229F582E583ED
:1004B0003AF583E0225006E92582F8E622BBFE06E3
:1004C000E92582F8E222E58229F582E5833AF5837F
:1004D000E49322BB010689828A83F0225002F7222C
:1004E000BBFE01F322FAE6FB0808E6F925F0F61850
:1004F000E6CA3AF622D083D082F8E49370127401EF
:1005000093700DA3A393F8740193F5828883E47329
:100510007402936860EFA3A3A380DFE54E243AF84A
:10052000E6054E227837300802783AE475F0011279
:1005300004E502048D2001EB7F2ED2018018EF54D8
:100540000F2490D43440D4FF30050BEF24BFB41AED
:100550000050032461FFE54F6002154F0552E5523C
:100560007002055130080D7837E475F0011204E58A
:10057000EF0204D3020AAC7403D2088003E4C20879
:10058000F54E8B378A388939E4F54FF551F552E548
:100590004F60077F2012055680F57550FFC202C2DA
:1005A00001C203C204C206C207C209120524FF70B9
:1005B0000D3008057F00120567AF52AE5122B425F9
:1005C0005FC2D5C205120524FF24D0B40A00501A18
:1005D00075F00A784F30D50508B6FF0106C6A42687
:1005E000F620D5047002D20480D924CFB41A00EFCB
:1005F0005004C2E5D205020854D20280C6D201805E
:10060000C0D20380BCD2D580BAD20680B47F20127B
:1006100005562003077401B54F0040F112051BFF7A
:1006200012055602058FD209D207809512051BFBD1
:1006300012051BFA12051BF94A4B7006794B7A0911
:100640007BFF20032EE54F602A7E008E827583009B
:100650001204A660060EEE655070F0C2D5EBC0E045
:10066000EAC0E0E9C0E0EE1208B4D0E0F9D0E0FA68
:10067000D0E0FB12048DFF60AAEBC0E0EAC0E0E925
:10068000C0E0120556D0E02401F9D0E03400FAD0E1
:10069000E0FBE5500460DCD550D98087D20380A20E
:1006A00012089760F7E550700104120003A950602A
:1006B0000DE550600914F55012093EEF60F3EA3081
:1006C000E702F404C3995077EAF425500430E701B7
:1006D000E404F550800D12089760C1EA05502550DA
:1006E000120003EA784DF630E701E4255004D550B6
:1006F00004200601141208B4E4C0E012093E784D4B
:10070000E6601320E70714F612053E802204F6D0B7
:10071000E014C0E07F0012053EE550600712053589
:100720001550800B300603120535D0E002058FD03E
:10073000E00480C512089760A0E550041200037819
:100740004DEAF6E55020060260010424041208B4C4
:1007500074FF04C0E012093E12053EE55020060277
:100760006003120535D0E0B550E87F4512054878A2
:100770004DE67F2B30E7047F2DF404C0E0120556D0
:10078000D0E075F00A84C0F012053FD0E012053FBA
:1007900002058F791080027908C207C2098008D249
:1007A000D5790A8004790AC2D5E550047002F55063
:1007B000E4FAFDFEFF12051BFC7B08200213120564
:1007C0001BFD7B1030010A12051BFE12051BFF7B6F
:1007D00020EC3382D592D55013C3E43001069FFF3D
:1007E000E49EFEE42002039DFDE49CFCE4CBF8C201
:1007F00002EC700CCFCECDCCE824F8F870F3801763
:10080000C3EF33FFEE33FEED33FDEC33FCEB33FB94
:10081000994002FB0FD8E9EB300205F8D0E0C4485C
:10082000B202C0E00AEC4D4E4F78207B0070C2EA65
:10083000B5500040BCC0E01208B6D0F0D0E02002B5
:1008400004C4C0E0C4B202C0F012053FD0F0D5F03D
:10085000EB02058F1204F5062C5307935805FD4C47
:1008600005F94207974F079F44079F490612430720
:10087000A55506D64607344506A047096B50060124
:100880002D06052E06282B06092306262009542AA4
:1008900005C14800000620E550B4FF03755006125C
:1008A000051BFC12051BFD12051BFE12051BFF7824
:1008B00046020032790AA2D5200414300609B91084
:1008C000020404B9080104A2D52007025001042043
:1008D00003689203B54F005034C0E07F2030041904
:1008E0007F30A20372077206500F12090DC203C2B5
:1008F00007C206C2097F30800F300603E9C0E0124C
:100900000556300603D0E0F9D0E0B54FCC300617DD
:100910007F30B9100C1205567F583005077F78805C
:1009200003B908031205563003057F2D0205567FD3
:10093000202009F87F2B2007F322920380CF7F002D
:10094000B4070050052446F8E6FF22286E756C6C4B
:100950002900D20212051B3002F8C202784F30D5AE
:100960000108F60205C12D5043495812051B240306
:10097000B405004001E490096693120547743A12E9
:100980000547D204754F040207938F258E248D23CB
:100990008C22C200E4F53674122536F8E4F60536EA
:1009A000E536B408F2753AFF753B0B753C5A852560
:1009B0004085243F85233E85223D7B007A007926B1
:1009C0001205777B007A007926120B1FEF14FF7453
:1009D000262FF8E6B430031F80F575360774262FEE
:1009E000F8E6FEB42E06D2000536802E30001374D1
:1009F000D82EF8E62480FE74122536F8A606C2002A
:100A0000801174262FF8E624D8F8E6FE74122536F5
:100A1000F8A606E5366008EF600515361F80BE2291
:100A2000787FE4F6D8FD758152020A67020B34E440
:100A300093A3F8E493A34003F68001F208DFF48067
:100A400029E493A3F85407240CC8C333C4540F44B7
:100A500020C8834004F456800146F6DFE4800B0191
:100A600002040810204080900AF3E47E019360BCE9
:100A7000A3FF543F30E509541FFEE493A360010E29
:100A8000CF54C025E060A840B8E493A3FAE493A350
:100A9000F8E493A3C8C582C8CAC583CAF0A3C8C571
:100AA00082C8CAC583CADFE9DEE780BEEFB40A07A1
:100AB000740D120AB7740A309811A899B8130CC2B1
:100AC000983098FDA899C298B811F63099FDC2994E
:100AD000F59922E4F52274122522F8E6FDAF2212E0
:100AE0000B477F017E00120B0A0522E522C3940802
:100AF00040E4220A083F065B4F666D7D077F6F0862
:100B000012000000000000000000EF4E6010007DA9
:100B1000027CC7DCFEDDFCEF1F70EF1E80EC22E4E0
:100B2000FFFE12048D600C0FEF70010E09E970F2E8
:100B30000A80EF22120B557F4E7E617D3C7C4B126A
:100B4000098A120AD380FBEF33333354F85390C72A
:0D0B500042908D8022C2B6C2B422256600FC
:00000001FF
