:0800000002000E020803E800F3
:10000B0002009A787FE4F6D8FD758109020055024B
:10001B0000BBE493A3F8E493A34003F68001F2083A
:10002B00DFF48029E493A3F85407240CC8C333C42A
:10003B00540F4420C8834004F456800146F6DFE495
:10004B00800B0102040810204080900003E47E0125
:10005B009360BCA3FF543F30E509541FFEE493A308
:10006B0060010ECF54C025E060A840B8E493A3FA1A
:10007B00E493A3F8E493A3C8C582C8CAC583CAF0A6
:10008B00A3C8C582C8CAC583CADFE9DEE780BEC084
:10009B00E0758A66758CFCE50945087008B28075B9
:1000AB0008037509E8E509150970021508D0E03257
:1000BB00D2AFD2A95389F0438901758A66758CFC3E
:0400CB00D28C80FE55
:00000001FF
