:090000000200F48A838982E47392
:10000B0002000EC0E0C0F0C083C082C0D075D0002B
:10001B00C000C001C002C003C004C005C006C007B9
:10002B00758A66758CFC751400E51475F003A424B1
:10003B0008F8860308E6FA08E64A4B6012E51475E1
:10004B00F003A42408F808E6FA08E6F91200030501
:10005B0014E514C3940440D1D007D006D005D004C6
:10006B00D003D002D001D000D0D0D082D083D0F03A
:10007B00D0E032AD07E4FC7E007480A80408800653
:10008B00CEA2E713CE13D8F8FFEDFBEF5BD37001D5
:10009B00C39296D297C2970CBC08DC22D3EF940084
:1000AB00EE94004010007D027CC7DCFEDDFCEF1FF0
:1000BB0070EA1E80E72220EA0F7F0A7E001200A75B
:1000CB0020EA0530EAFDD322C3221200C150FB12F5
:1000DB0001007FA212007E1200E780EED296D2972B
:1000EB00A2969200C297A20022787FE4F6D8FD7503
:0E00FB0081200200D5D297D296C296C29722DB
:00000001FF
