:03000000020137C3
:10000B000201C3E709F608DFFA8046E709F208DFC9
:10001B00FA803E88828C83E709F0A3DFFA8032E313
:10002B0009F608DFFA8078E309F208DFFA807088B6
:10003B00828C83E309F0A3DFFA806489828A83E0F0
:10004B00A3F608DFFA805889828A83E0A3F208DFDF
:10005B00FA804C80D280FA80C680D4806980F2808E
:10006B0033801080A680EA809A80A880DA80E280B4
:10007B00CA803389828A83ECFAE493A3C8C582C809
:10008B00CCC583CCF0A3C8C582C8CCC583CCDFE973
:10009B00DEE7800D89828A83E493A3F608DFF9EC0F
:1000AB00FAA9F0EDFB2289828A83ECFAE0A3C8C59A
:1000BB0082C8CCC583CCF0A3C8C582C8CCC583CCC1
:1000CB00DFEADEE880DB89828A83E493A3F208DF30
:1000DB00F980CC88F0EF60010E4E60C388F0ED2400
:1000EB0002B4040050B9F582EB2402B4040050AF03
:1000FB00232345822390005E73BB010CE58229F517
:10010B0082E5833AF583E0225006E92582F8E62260
:10011B00BBFE06E92582F8E222E58229F582E5831A
:10012B003AF583E493228A838982E473787FE4F639
:10013B00D8FD75813A02017E020297E493A3F8E49D
:10014B0093A34003F68001F208DFF48029E493A324
:10015B00F85407240CC8C333C4540F4420C883403D
:10016B0004F456800146F6DFE4800B01020408100C
:10017B00204080900350E47E019360BCA3FF543F6A
:10018B0030E509541FFEE493A360010ECF54C02544
:10019B00E060A840B8E493A3FAE493A3F8E493A334
:1001AB00C8C582C8CAC583CAF0A3C8C582C8CAC598
:1001BB0083CADFE9DEE780BEC0E0C0F0C083C08247
:1001CB00C0D075D000C000C001C002C003C004C0C5
:1001DB0005C006C007758A66758CFC750800E508B6
:1001EB0075F003A42426F8860308E6FA08E64A4BC2
:1001FB006012E50875F003A42426F808E6FA08E671
:10020B00F91201310508E508C3940440D1D007D099
:10021B0006D005D004D003D002D001D000D0D0D06E
:10022B0082D083D0F0D0E0328B238A248925E4FF5F
:10023B00EF75F003A42426F8860308E6FA08E6F91E
:10024B00E5238524838525826B7008E9658270031D
:10025B00EA65837002C3220FBF04D5E4FFEF75F08C
:10026B0003A42426F8860308E6FA08E64A4B701620
:10027B00AA24A925EF75F003A42426F8A62308A623
:10028B000208A601D3220FBF04D3C322E4F50A78D8
:10029B000B7C00FD7BFF7A037974FE7F181200DE66
:1002AB00120362750918E50AC395095009740B25E9
:1002BB000AF8E6F48001E4FF120326050AE5092497
:1002CB0008FFE433FE7C00EFB50A07ECB50603E448
:1002DB00F50A7FC87E0012030C80C8E5327004D289
:1002EB00908002C290C292D292C291D29174332565
:1002FB0032F8E6F4F5800532E532B40803E4F53262
:10030B0022D3EF9400EE94004010007D027CC7DCFA
:10031B00FEDDFCEF1F70EA1E80E7227E0774322E93
:10032B00F8E6FD74332EF8A605EE60031E80EE8F03
:10033B003322D2AFD2A95389F0438901758A6675EE
:10034B008CFCD28C220C2600000000000000000068
:10035B0000000001320000C2B4D2B6C2B512033D98
:10036B007BFF7A0279E6020233C3E7E7E7E7E7C3ED
:10037B00FF9900000081C3E7FF999999999981C36F
:01038B00FF72
:00000001FF
