:0A000000020EDAC296D297D29622C1
:10000B00020BD102027FE86480F8E933E833601118
:10001B000460F0ED33EC337009E8FCE9FDEAFEEB2C
:10002B00FF220460DED3EB9FEA9EE99DE8C2E78CDA
:10003B00F0C2F795F0400CE8CCF8E9CDF9EACEFA2E
:10004B00EBCFFB12024A85D0F05804700320D5B3D6
:10005B00E80470075002B2D502028992D5EC046015
:10006B00F7E4CCC0E0C398F8603B94186008400DEF
:10007B00D0E0FB020261E4FBFAC9FC8028E830E423
:10008B0006E4C9FBE4CAFCE830E305E4C9CACBFCCF
:10009B00E854076010F8C3E913F9EA13FAEB13FB02
:1000AB00EC13FCD8F130F52FC3E49CFCEF9BFFEE77
:1000BB009AFEED99FDD0E0FBEF4E4D4C701222DB1A
:1000CB0003020286EC2CFCEF33FFEE33FEED33FD27
:1000DB00ED30E7EB020261EF2BFFEE3AFEED39FD5F
:1000EB00D0E0FB50130BBB0003020289ED13FDEEB6
:1000FB0013FEEF13FFEC13FC020261EC4D6011E8F1
:10010B00497017ED33EC3304600DE4FCFFFEFD2268
:10011B00E933E8330470F802027F12024A58046094
:10012B0009E4CC2481500628500902028928400397
:10013B00020286C0E0EB4A7044B98006D0E0FB02B5
:10014B000275EF4E701CBD8008EBFFEAFEE9FD80E7
:10015B00EBE98DF0A4FEE5F00201EFE9CDF9EAFE43
:10016B00EBFFEF89F0A4FCE5F0CE89F0A42EFFE4C1
:10017B0035F0CD89F0A42DFEE435F08067EF4E709D
:10018B0005BD80D780C3EF8BF0A4ACF0EE8BF0A451
:10019B002CFCE435F0F8EF8AF0A42CE5F038FCE405
:1001AB0033CB8DF0A42CFCE5F03BF8EE8AF0A42CBD
:1001BB00FCE5F038F8E433CF89F0A42CFCE5F038FB
:1001CB00CF3400CE89F0A42FFFE5F03EFEE433C917
:1001DB008DF0A42EFEE5F039CD8AF0A42FFFE5F0CB
:1001EB003EFEE43DFD33D0E0FB50070BBB000F029E
:1001FB000289EC2CFCEF33FFEE33FEED33FD0202F4
:10020B006175F020800E75F010800575F0087D008B
:10021B007E007F003392D530D503120624EC334099
:10022B0010EF33FFEE33FEED33FDEC33FCD5F0ED89
:10023B0022E5F0247EA2D513CC92E7CDCEFF22E9A6
:10024B00D2E7C933E833F892D5EDD2E7CD33EC33AF
:10025B00FC5002B2D522EC30E7100FBF000C0EBEE3
:10026B0000080DBD00040BEB6014A2D5EB13FCEDE5
:10027B0092E7FD2274FFFCFDFEFF22E480F8A2D57D
:10028B0074FF13FC7D80E480EFF920E72824F950FC
:10029B00037907E4F42402FB18DBFDE624FB50147E
:1002AB00E9600DE4F618E604F6B40A08E4F6D9F5AD
:1002BB007401F60A22C2D522ED33EC3392D5FA60E3
:1002CB002AB4FF33EDC2E77BFF60067A0279E8E4DC
:1002DB00227A0279F120D5047A0279EC224E614E12
:1002EB00002B494E46002D494E4600E47A08F6088D
:1002FB00DAFC7B00740722E8C0E0ECC0E0EDC0E064
:10030B00EEC0E0EFC0E0EA75F010A4CAABF075F0F8
:10031B004DA42BFBE435F0FCEA2410FAEB34C5FBBF
:10032B00EC34D9FCEDC2E7FF75F056A4F42411C5EB
:10033B00F0F434C58FF0A42AE5F03BE43CF620E75B
:10034B0014120496D0E0FFD0E0FED0E0FDD0E0FC2C
:10035B001203C98014F404120496D0E0FFD0E0FE1F
:10036B00D0E0FDD0E0FC120106D0E0F8E6FAEDD2C9
:10037B00E7CD33EC332482FBE4C3CF33CFCE33CE84
:10038B00CD33CD33DBF37B0775F00A846004F608BD
:10039B001B0AE5F0F6088FF0740AA4FFACF08EF0A0
:1003AB00740AA42CFEACF050010C8DF0740AA42C32
:1003BB00FDE435F0F608DBDE740722020289EC5D02
:1003CB00046005E85904700302027F12024A5804C4
:1003DB0060F6EC4860F2EC7004FDFEFF22C860DBB7
:1003EB002481C85009C398600250060202869850B7
:1003FB00CAF582E9294B4A7005AB8202027575F08A
:10040B00007C1A7880C3EF9BEE9AED99400DC3EFF9
:10041B009BFFEE9AFEED99FDE842F0DC23ACF0D0A9
:10042B00E0FFD0E0FED0E0FDAB8220E7101BEB60DD
:10043B00BAEC2CFCEF33FFEE33FEED33FD02026121
:10044B00E803F830E705C0F075F000EF2FFFEE334F
:10045B00FEED33FD40B830E7C280AA3F800000417B
:10046B0020000042C80000447A0000461C400047B0
:10047B00C35000497424004B1896804CBEBC205AC4
:10048B000E1BCA6753C21C749DC5AEFB6006540796
:10049B00601C23231204C4EB543860091204B012FD
:1004AB0004BF120106ECF8EDF9EEFAEFCB22EB12DA
:1004BB0004BF80F1543803241C900466FE93FC0E99
:1004CB00EE93FD0EEE930ECE93FF22E709F608DFB7
:1004DB00FA8046E709F208DFFA803E88828C83E7D0
:1004EB0009F0A3DFFA8032E309F608DFFA8078E33C
:1004FB0009F208DFFA807088828C83E309F0A3DFAE
:10050B00FA806489828A83E0A3F608DFFA8058892F
:10051B00828A83E0A3F208DFFA804C80D280FA80D3
:10052B00C680D4806980F28033801080A680EA80F8
:10053B009A80A880DA80E280CA803389828A83EC31
:10054B00FAE493A3C8C582C8CCC583CCF0A3C8C5B5
:10055B0082C8CCC583CCDFE9DEE7800D89828A8334
:10056B00E493A3F608DFF9ECFAA9F0EDFB228982FC
:10057B008A83ECFAE0A3C8C582C8CCC583CCF0A3B0
:10058B00C8C582C8CCC583CCDFEADEE880DB8982B4
:10059B008A83E493A3F208DFF980CC88F0EF600143
:1005AB000E4E60C388F0ED2402B4040050B9F582FE
:1005BB00EB2402B4040050AF23234582239005267D
:1005CB0073BB010689828A83E0225002E722BBFEBD
:1005DB0002E32289828A83E49322BB010CE5822900
:1005EB00F582E5833AF583E0225006E92582F8E6A9
:1005FB0022BBFE06E92582F8E222E58229F582E597
:10060B00833AF583E49322BB010689828A83F02225
:10061B005002F722BBFE01F322C3E49FFFE49EFED0
:10062B00E49DFDE49CFC22FAE6FB0808E6F925F0C4
:10063B00F618E6CA3AF622D083D082F8E493701209
:10064B00740193700DA3A393F8740193F5828883BF
:10065B00E4737402936860EFA3A3A380DF8A83899A
:10066B0082E473E562244EF8E6056222784B30078C
:10067B0002784EE475F0011206320205CC2000EB35
:10068B007F2ED2008018EF540F2490D43440D4FF27
:10069B0030040BEF24BFB41A0050032461FFE56351
:1006AB00600215630566E5667002056530070D7817
:1006BB004BE475F001120632EF020612020E0574BE
:1006CB0003D2078003E4C207F5628B4B8A4C894D3A
:1006DB00E4F563F565F566E56360077F201206A90F
:1006EB0080F57564FFC201C200C202C203C205C21B
:1006FB0006C208120677FF700D3007057F00120641
:10070B00BAAF66AE6522B4255FC2D5C204120677B6
:10071B00FF24D0B40A00501A75F00A786330D5055F
:10072B0008B6FF0106C6A426F620D5047002D20334
:10073B0080D924CFB41A00EF5004C2E5D2040209C9
:10074B00A7D20180C6D20080C0D20280BCD2D58095
:10075B00BAD20580B47F201206A92002077401B516
:10076B00630040F112066EFF1206A90206E2D208E0
:10077B00D206809512066EFB12066EFA12066EF901
:10078B004A4B7006799E7A0A7BFF20022EE5636046
:10079B002A7E008E827583001205E560060EEE65DB
:1007AB006470F0C2D5EBC0E0EAC0E0E9C0E0EE1245
:1007BB000A07D0E0F9D0E0FAD0E0FB1205CCFF60DD
:1007CB00AAEBC0E0EAC0E0E9C0E01206A9D0E02441
:1007DB0001F9D0E03400FAD0E0FBE5640460DCD52D
:1007EB0064D98087D20280A21209EA60F7E56470AF
:1007FB000104120294A964600DE564600914F564A8
:10080B00120A91EF60F3EA30E702F404C3995077D0
:10081B00EAF425640430E701E404F564800D120961
:10082B00EA60C1EA05642564120294EA7861F63045
:10083B00E701E4256404D5640420050114120A07BA
:10084B00E4C0E0120A917861E6601320E70714F622
:10085B00120691802204F6D0E014C0E07F0012064D
:10086B0091E56460071206881564800B300503124E
:10087B000688D0E00206E2D0E00480C51209EA60E7
:10088B00A0E564041202947861EAF6E5642005029F
:10089B006001042404120A0774FF04C0E0120A91D9
:1008AB00120691E5642005026003120688D0E0B5BC
:1008BB0064E87F4512069B7861E67F2B30E7047F67
:1008CB002DF404C0E01206A9D0E075F00A84C0F044
:1008DB00120692D0E01206920206E279108002799B
:1008EB0008C206C2088008D2D5790A8004790AC2E8
:1008FB00D5E564047002F564E4FAFDFEFF12066EA2
:10090B00FC7B0820011312066EFD7B1030000A12CF
:10091B00066EFE12066EFF7B20EC3382D592D5500D
:10092B0013C3E43000069FFFE49EFEE42001039D09
:10093B00FDE49CFCE4CBF8C201EC700CCFCECDCC2B
:10094B00E824F8F870F38017C3EF33FFEE33FEEDB6
:10095B0033FDEC33FCEB33FB994002FB0FD8E9EB97
:10096B00300105F8D0E0C448B201C0E00AEC4D4EAE
:10097B004F78207B0070C2EAB5640040BCC0E01227
:10098B000A09D0F0D0E0200104C4C0E0C4B201C019
:10099B00F0120692D0F0D5F0EB0206E212064207F7
:1009AB007F5308E65807504C074C4208EA4F08F2B1
:1009BB004408F24907654308F85508294608874556
:1009CB0007F3470ABE5007542D07582E077B2B07FA
:1009DB005C230779200AA72A07144800000773E550
:1009EB0064B4FF0375640612066EFC12066EFD12EC
:1009FB00066EFE12066EFF785A0202C3790AA2D562
:100A0B00200314300509B910020404B9080104A22B
:100A1B00D52006025001042002689202B5630050F3
:100A2B0034C0E07F203003197F30A20272067205BA
:100A3B00500F120A60C202C206C205C2087F308084
:100A4B000F300503E9C0E01206A9300503D0E0F929
:100A5B00D0E0B563CC3005177F30B9100C1206A966
:100A6B007F583004077F788003B908031206A9303A
:100A7B0002057F2D0206A97F202008F87F2B200678
:100A8B00F322920280CF7F00B407005005245AF85E
:100A9B00E6FF22286E756C6C2900D20112066E30AF
:100AAB0001F8C201786330D50108F60207142D5006
:100ABB0043495812066E2403B405004001E4900A22
:100ACB00B99312069A743A12069AD203756304020A
:100ADB0008E68B4B8A4C894D8D4EE54F25E0120E67
:100AEB002CE4F550AB4BAA4CA94D85508275830075
:100AFB001205E5FF601DC37410954EFEE550C39EB5
:100B0B005011EF75F010A42408F9740D120ECE05D8
:100B1B005080D1E54F25E004120E2CE4F550AB4B81
:100B2B00AA4CA94D8550827583001205E5FF601D07
:100B3B00C37410954EFEE550C39E5011EF75F01027
:100B4B00A42410F9740D120ECE055080D122120E72
:100B5B0075120CA2120DAD8F34120C418F388E37DB
:100B6B008D368C357BFF7A15791CE4F54FFD120A17
:100B7B00DDAF34EF3395E0FEFDFCE4F53D753E0152
:100B8B00120D32754EFF754F1575502985385485EA
:100B9B0037538536528535517B007A0079231206FF
:100BAB00CA7BFF7A15792E754F02E4FD120ADD7BA5
:100BBB00007A007923754F03E4FD120ADD7FE87E8E
:100BCB0003120E93808EC0E0C0F0C083C082C0D0F1
:100BDB0075D000C000C001C002C003C004C005C076
:100BEB0006C007758A66758CFC752200E52275F0C8
:100BFB0003A42408F8860308E6FA08E64A4B6012B9
:100C0B00E52275F003A42408F808E6FA08E6F912C1
:100C1B0006680522E522C3940440D1D007D006D044
:100C2B0005D004D003D002D001D000D0D0D082D0D8
:100C3B0083D0F0D0E032120EAD7FCC120E517F4438
:100C4B00120E51120EAD7FCC120E517FBE120E51F1
:100C5B00120D798F39120D798F3AE539540FFCE467
:100C6B00120216E4FBFA7980783D120106C004C02B
:100C7B0005C006C007E53A75F010A4FFE539C4546A
:100C8B000FFDE5F0FCEF4DFDEC120211D003D0028D
:100C9B00D001D000020015783A7C007D007BFF7AF2
:100CAB001479FE7E007F101205A6784A7C007D0029
:100CBB007BFF7A15790E7E007F021205A67B007AE8
:100CCB0000794A7D02120EFFE4F5397B007A007938
:100CDB003A7D10120ED50539E539C3944040EC220C
:100CEB008B548A5589568D57120EE67F78120DDC80
:100CFB00120EC17F003000027F40120DDC120EC1BC
:100D0B00E4F558E558C39557501AAB54AA55A95654
:100D1B008558827583001205E5FF120DDC120EC19A
:100D2B00055880DF0200038F3C8E3B8D3A8C39785F
:100D3B003F7C007D007BFF7A1579107E007F0C12C3
:100D4B0005A6754EFF754F0F755004853C54853BBA
:100D5B0053853A528539517B007A00793F1206CA86
:100D6B007B007A00793F853E4FAD3D020ADDE4F50D
:100D7B003BF53DF53CC2ECD2EC120EF5A2ECE433A4
:100D8B00F53DAF3CA807088002C333D8FCF53D42C4
:100D9B003B120EFAD2EC053CE53CC3940840D6AFAF
:100DAB003B22120EAD7FCC120E517F44120E51120C
:100DBB000EAD7FCC120E517FBE120E51120D798FDC
:100DCB0039120D79EFC454F0FFE539C4540F4FFFBE
:100DDB0022AD07E4FC7E007480A804088006CEA236
:100DEB00E713CE13D8F8FFEDFBEF5BD37001C39283
:100DFB0096D297C2970CBC08DC22EFB40A07740D8D
:100E0B00120E10740A309811A899B8130CC29830AE
:100E1B0098FDA899C298B811F63099FDC299F59929
:100E2B0022FFE54E75F008A4FDEF24B0F551ED540B
:100E3B000FF552EDC4540F2410F5537B007A007953
:100E4B00517D03020EFF8F3BE4F53CC2EC120EF515
:100E5B00E53B1392ECE53BC313F53B120EFAD2ECD8
:100E6B00053CE53CC3940840E22278397C007D00C8
:100E7B007BFF7A1479F87E007F061205A67B007A39
:100E8B000079397D06020EFFD3EF9400EE940040FB
:100E9B0010007D027CC7DCFEDDFCEF1F70EA1E80BC
:100EAB00E722C2EC120EEFD2EC120EFAA2EC920079
:100EBB00120EEFA20022D296D297A2969201C2975F
:100ECB00A2012235F0FA7BFF7D08D200020CEB78F1
:100EDB007FE4F6D8FD758166020B59D297D296C284
:100EEB0096C29722007FDADFFE227F02DFFE227F8F
:100EFB0019DFFE22C200020CEB256C64000000001F
:100F0B0000000000000000000000000000000000D6
:100F1B00F800000000000000333000000000100C4F
:100F2B0006100C0600000000000000000040C07816
:100F3B0040C0784000043F04043F04040000708864
:100F4B00FC08300000001820FF211E0000F008F004
:100F5B0000E018000000211C031E211E0000F008F9
:100F6B0088700000001E2123241927211010160E53
:100F7B000000000000000000000000000000000066
:100F8B00E0180402000000000718204000000204D3
:100F9B0018E00000000040201807000000404080CF
:100FAB00F0804040000202010F010202000000002D
:100FBB00F0000000000101011F0101010000000011
:100FCB00000000000080B070000000000000000076
:100FDB0000000000000001010101010101000000FF
:100FEB000000000000003030000000000000000096
:100FFB000080601804006018060100000000E0107B
:10100B00080810E000000F102020100F0000101037
:10101B00F8000000000020203F2020000000700896
:10102B000808887000003028242221300000300886
:10103B0088884830000018202020110E000000C0C6
:10104B002010F8000000070424243F240000F808B7
:10105B0088880808000019212020110E0000E010DC
:10106B008888180000000F112020110E000038088E
:10107B0008C83808000000003F000000000070881E
:10108B000808887000001C222121221C0000E0109F
:10109B00080810E0000000312222110F00000000B0
:1010AB00C0C0000000000000303000000000000055
:1010BB008000000000000080600000000000008045
:1010CB00402010080000010204081020004040409E
:1010DB0040404040000404040404040400000810D1
:1010EB00204080000000201008040201000070481E
:1010FB00080808F0000000003036010000C030C8BE
:10110B0028E810E0000718272423140B000000C068
:10111B0038E0000000203C23020227382008F88822
:10112B008888700000203F202020110E00C030085E
:10113B000808083800071820202010080008F808B5
:10114B00080810E000203F202020100F0008F8882E
:10115B0088E8081000203F20202320180008F8887A
:10116B0088E8081000203F200003000000C0300872
:10117B00080838000007182020221E020008F80873
:10118B00000008F808203F210101213F200008083A
:10119B00F8080800000020203F2020000000000875
:1011AB0008F8080800C08080807F00000008F888DD
:1011BB00C028180800203F20012638200008F80816
:1011CB000000000000203F20202020300008F8F80D
:1011DB0000F8F80800203F003F003F200008F830DF
:1011EB00C00008F808203F200007183F00E0100857
:1011FB00080810E0000F10202020100F0008F8083E
:10120B00080808F000203F210101010000E0100850
:10121B00080810E0000F18242438504F0008F888F5
:10122B008888887000203F2000030C3020007088D5
:10123B0008080838000038202121221C0018080853
:10124B00F8080818000000203F2000000008F808EC
:10125B00000008F808001F202020201F00087888B5
:10126B000000C83808000007380E010000F808001D
:10127B00F80008F800033C0700073C030008186857
:10128B00808068180820302C03032C30200838C8C5
:10129B0000C83808000000203F200000001008089C
:1012AB0008C838080020382621202018000000002C
:1012BB00FE020202000000007F40404000000C30A4
:1012CB00C000000000000000010638C00000020250
:1012DB0002FE000000004040407F000000000004C0
:1012EB0002020204000000000000000000000000E9
:1012FB0000000000008080808080808080000202DF
:10130B00040000000000000000000000000000804E
:10131B0080808000000019242222223F2008F80040
:10132B008080000000003F112020110E0000000003
:10133B008080800000000E11202020110000000092
:10134B00808088F800000E112020103F20000080C4
:10135B008080800000001F22222222130000808048
:10136B00F0888888180020203F2020000000008093
:10137B008080808000006B94949493600008F80048
:10138B008080800000203F210000203F20008098BB
:10139B0098000000000020203F20200000000000EB
:1013AB00809898000000C08080807F000008F800C3
:1013BB000080808000203F24022D30200000080890
:1013CB00F8000000000020203F20200000808080DB
:1013DB008080808000203F20003F20003F808000E5
:1013EB008080800000203F210000203F20000080F3
:1013FB008080800000001F202020201F00808000A4
:10140B00808000000080FFA12020110E0000000052
:10141B008080808000000E112020A0FF80808080C3
:10142B00008080800020203F2120000100000080F0
:10143B0080808080000033242424241900008080C5
:10144B00E0808000000000001F2020000080800052
:10145B000000808000001F202020103F2080808013
:10146B00000080808000010E3008060100808000A3
:10147B0080008080800F300C030C300F00008080C8
:10148B0000808080000020312E0E31200080808073
:10149B00000080808080818E7018060100008080A3
:1014AB0080808080000021302C2221300000000041
:1014BB0000807C020200000000003F404000000062
:1014CB0000FF00000000000000FF0000000002020F
:1014DB007C800000000040403F000000000006013F
:1014EB0001020204040000000000000000AEA1C8CD
:1014FB008D14AF0000000000000000000000000091
:10150B0000000020000000000000000000000000B0
:10151B000054656D70657261747572653A00252EA5
:10152B0032660054656D7065726174757265466CD8
:05153B006F61743A002D
:00000001FF
