:0A000000020C55C296D297D2962248
:10000B00020DE302027FE86480F8E933E833601104
:10001B000460F0ED33EC337009E8FCE9FDEAFEEB2C
:10002B00FF220460DED3EB9FEA9EE99DE8C2E78CDA
:10003B00F0C2F795F0400CE8CCF8E9CDF9EACEFA2E
:10004B00EBCFFB12024A85D0F05804700320D5B3D6
:10005B00E80470075002B2D502028992D5EC046015
:10006B00F7E4CCC0E0C398F8603B94186008400DEF
:10007B00D0E0FB020261E4FBFAC9FC8028E830E423
:10008B0006E4C9FBE4CAFCE830E305E4C9CACBFCCF
:10009B00E854076010F8C3E913F9EA13FAEB13FB02
:1000AB00EC13FCD8F130F52FC3E49CFCEF9BFFEE77
:1000BB009AFEED99FDD0E0FBEF4E4D4C701222DB1A
:1000CB0003020286EC2CFCEF33FFEE33FEED33FD27
:1000DB00ED30E7EB020261EF2BFFEE3AFEED39FD5F
:1000EB00D0E0FB50130BBB0003020289ED13FDEEB6
:1000FB0013FEEF13FFEC13FC020261EC4D6011E8F1
:10010B00497017ED33EC3304600DE4FCFFFEFD2268
:10011B00E933E8330470F802027F12024A58046094
:10012B0009E4CC2481500628500902028928400397
:10013B00020286C0E0EB4A7044B98006D0E0FB02B5
:10014B000275EF4E701CBD8008EBFFEAFEE9FD80E7
:10015B00EBE98DF0A4FEE5F00201EFE9CDF9EAFE43
:10016B00EBFFEF89F0A4FCE5F0CE89F0A42EFFE4C1
:10017B0035F0CD89F0A42DFEE435F08067EF4E709D
:10018B0005BD80D780C3EF8BF0A4ACF0EE8BF0A451
:10019B002CFCE435F0F8EF8AF0A42CE5F038FCE405
:1001AB0033CB8DF0A42CFCE5F03BF8EE8AF0A42CBD
:1001BB00FCE5F038F8E433CF89F0A42CFCE5F038FB
:1001CB00CF3400CE89F0A42FFFE5F03EFEE433C917
:1001DB008DF0A42EFEE5F039CD8AF0A42FFFE5F0CB
:1001EB003EFEE43DFD33D0E0FB50070BBB000F029E
:1001FB000289EC2CFCEF33FFEE33FEED33FD0202F4
:10020B006175F020800E75F010800575F0087D008B
:10021B007E007F003392D530D503120624EC334099
:10022B0010EF33FFEE33FEED33FDEC33FCD5F0ED89
:10023B0022E5F0247EA2D513CC92E7CDCEFF22E9A6
:10024B00D2E7C933E833F892D5EDD2E7CD33EC33AF
:10025B00FC5002B2D522EC30E7100FBF000C0EBEE3
:10026B0000080DBD00040BEB6014A2D5EB13FCEDE5
:10027B0092E7FD2274FFFCFDFEFF22E480F8A2D57D
:10028B0074FF13FC7D80E480EFF920E72824F950FC
:10029B00037907E4F42402FB18DBFDE624FB50147E
:1002AB00E9600DE4F618E604F6B40A08E4F6D9F5AD
:1002BB007401F60A22C2D522ED33EC3392D5FA60E3
:1002CB002AB4FF33EDC2E77BFF60067A0279E8E4DC
:1002DB00227A0279F120D5047A0279EC224E614E12
:1002EB00002B494E46002D494E4600E47A08F6088D
:1002FB00DAFC7B00740722E8C0E0ECC0E0EDC0E064
:10030B00EEC0E0EFC0E0EA75F010A4CAABF075F0F8
:10031B004DA42BFBE435F0FCEA2410FAEB34C5FBBF
:10032B00EC34D9FCEDC2E7FF75F056A4F42411C5EB
:10033B00F0F434C58FF0A42AE5F03BE43CF620E75B
:10034B0014120496D0E0FFD0E0FED0E0FDD0E0FC2C
:10035B001203C98014F404120496D0E0FFD0E0FE1F
:10036B00D0E0FDD0E0FC120106D0E0F8E6FAEDD2C9
:10037B00E7CD33EC332482FBE4C3CF33CFCE33CE84
:10038B00CD33CD33DBF37B0775F00A846004F608BD
:10039B001B0AE5F0F6088FF0740AA4FFACF08EF0A0
:1003AB00740AA42CFEACF050010C8DF0740AA42C32
:1003BB00FDE435F0F608DBDE740722020289EC5D02
:1003CB00046005E85904700302027F12024A5804C4
:1003DB0060F6EC4860F2EC7004FDFEFF22C860DBB7
:1003EB002481C85009C398600250060202869850B7
:1003FB00CAF582E9294B4A7005AB8202027575F08A
:10040B00007C1A7880C3EF9BEE9AED99400DC3EFF9
:10041B009BFFEE9AFEED99FDE842F0DC23ACF0D0A9
:10042B00E0FFD0E0FED0E0FDAB8220E7101BEB60DD
:10043B00BAEC2CFCEF33FFEE33FEED33FD02026121
:10044B00E803F830E705C0F075F000EF2FFFEE334F
:10045B00FEED33FD40B830E7C280AA3F800000417B
:10046B0020000042C80000447A0000461C400047B0
:10047B00C35000497424004B1896804CBEBC205AC4
:10048B000E1BCA6753C21C749DC5AEFB6006540796
:10049B00601C23231204C4EB543860091204B012FD
:1004AB0004BF120106ECF8EDF9EEFAEFCB22EB12DA
:1004BB0004BF80F1543803241C900466FE93FC0E99
:1004CB00EE93FD0EEE930ECE93FF22E709F608DFB7
:1004DB00FA8046E709F208DFFA803E88828C83E7D0
:1004EB0009F0A3DFFA8032E309F608DFFA8078E33C
:1004FB0009F208DFFA807088828C83E309F0A3DFAE
:10050B00FA806489828A83E0A3F608DFFA8058892F
:10051B00828A83E0A3F208DFFA804C80D280FA80D3
:10052B00C680D4806980F28033801080A680EA80F8
:10053B009A80A880DA80E280CA803389828A83EC31
:10054B00FAE493A3C8C582C8CCC583CCF0A3C8C5B5
:10055B0082C8CCC583CCDFE9DEE7800D89828A8334
:10056B00E493A3F608DFF9ECFAA9F0EDFB228982FC
:10057B008A83ECFAE0A3C8C582C8CCC583CCF0A3B0
:10058B00C8C582C8CCC583CCDFEADEE880DB8982B4
:10059B008A83E493A3F208DFF980CC88F0EF600143
:1005AB000E4E60C388F0ED2402B4040050B9F582FE
:1005BB00EB2402B4040050AF23234582239005267D
:1005CB0073BB010689828A83E0225002E722BBFEBD
:1005DB0002E32289828A83E49322BB010CE5822900
:1005EB00F582E5833AF583E0225006E92582F8E6A9
:1005FB0022BBFE06E92582F8E222E58229F582E597
:10060B00833AF583E49322BB010689828A83F02225
:10061B005002F722BBFE01F322C3E49FFFE49EFED0
:10062B00E49DFDE49CFC22FAE6FB0808E6F925F0C4
:10063B00F618E6CA3AF622D083D082F8E493701209
:10064B00740193700DA3A393F8740193F5828883BF
:10065B00E4737402936860EFA3A3A380DF8A83899A
:10066B0082E473E56B2457F8E6056B227854300768
:10067B00027857E475F0011206320205CC2000EB2C
:10068B007F2ED2008018EF540F2490D43440D4FF27
:10069B0030040BEF24BFB41A0050032461FFE56C48
:1006AB006002156C056FE56F7002056E30070D78F3
:1006BB0054E475F001120632EF020612020F6F744A
:1006CB0003D2078003E4C207F56B8B548A55895616
:1006DB00E4F56CF56EF56FE56C60077F201206A9EB
:1006EB0080F5756DFFC201C200C202C203C205C212
:1006FB0006C208120677FF700D3007057F00120641
:10070B00BAAF6FAE6E22B4255FC2D5C204120677A4
:10071B00FF24D0B40A00501A75F00A786C30D50556
:10072B0008B6FF0106C6A426F620D5047002D20334
:10073B0080D924CFB41A00EF5004C2E5D2040209C9
:10074B00A7D20180C6D20080C0D20280BCD2D58095
:10075B00BAD20580B47F201206A92002077401B516
:10076B006C0040F112066EFF1206A90206E2D208D7
:10077B00D206809512066EFB12066EFA12066EF901
:10078B004A4B7006799E7A0A7BFF20022EE56C603D
:10079B002A7E008E827583001205E560060EEE65DB
:1007AB006D70F0C2D5EBC0E0EAC0E0E9C0E0EE123C
:1007BB000A07D0E0F9D0E0FAD0E0FB1205CCFF60DD
:1007CB00AAEBC0E0EAC0E0E9C0E01206A9D0E02441
:1007DB0001F9D0E03400FAD0E0FBE56D0460DCD524
:1007EB006DD98087D20280A21209EA60F7E56D709D
:1007FB000104120294A96D600DE56D600914F56D8D
:10080B00120A91EF60F3EA30E702F404C3995077D0
:10081B00EAF4256D0430E701E404F56D800D12094F
:10082B00EA60C1EA056D256D120294EA786AF6302A
:10083B00E701E4256D04D56D0420050114120A07A8
:10084B00E4C0E0120A91786AE6601320E70714F619
:10085B00120691802204F6D0E014C0E07F0012064D
:10086B0091E56D6007120688156D800B300503123C
:10087B000688D0E00206E2D0E00480C51209EA60E7
:10088B00A0E56D04120294786AEAF6E56D20050284
:10089B006001042404120A0774FF04C0E0120A91D9
:1008AB00120691E56D2005026003120688D0E0B5B3
:1008BB006DE87F4512069B786AE67F2B30E7047F55
:1008CB002DF404C0E01206A9D0E075F00A84C0F044
:1008DB00120692D0E01206920206E279108002799B
:1008EB0008C206C2088008D2D5790A8004790AC2E8
:1008FB00D5E56D047002F56DE4FAFDFEFF12066E90
:10090B00FC7B0820011312066EFD7B1030000A12CF
:10091B00066EFE12066EFF7B20EC3382D592D5500D
:10092B0013C3E43000069FFFE49EFEE42001039D09
:10093B00FDE49CFCE4CBF8C201EC700CCFCECDCC2B
:10094B00E824F8F870F38017C3EF33FFEE33FEEDB6
:10095B0033FDEC33FCEB33FB994002FB0FD8E9EB97
:10096B00300105F8D0E0C448B201C0E00AEC4D4EAE
:10097B004F78207B0070C2EAB56D0040BCC0E0121E
:10098B000A09D0F0D0E0200104C4C0E0C4B201C019
:10099B00F0120692D0F0D5F0EB0206E212064207F7
:1009AB007F5308E65807504C074C4208EA4F08F2B1
:1009BB004408F24907654308F85508294608874556
:1009CB0007F3470ABE5007542D07582E077B2B07FA
:1009DB005C230779200AA72A07144800000773E550
:1009EB006DB4FF03756D0612066EFC12066EFD12DA
:1009FB00066EFE12066EFF78630202C3790AA2D559
:100A0B00200314300509B910020404B9080104A22B
:100A1B00D52006025001042002689202B56C0050EA
:100A2B0034C0E07F203003197F30A20272067205BA
:100A3B00500F120A60C202C206C205C2087F308084
:100A4B000F300503E9C0E01206A9300503D0E0F929
:100A5B00D0E0B56CCC3005177F30B9100C1206A95D
:100A6B007F583004077F788003B908031206A9303A
:100A7B0002057F2D0206A97F202008F87F2B200678
:100A8B00F322920280CF7F00B4070050052463F855
:100A9B00E6FF22286E756C6C2900D20112066E30AF
:100AAB0001F8C201786C30D50108F60207142D50FD
:100ABB0043495812066E2403B405004001E4900A22
:100ACB00B99312069A743A12069AD203756C040201
:100ADB0008E678247C007D007BFF7A1779107E0076
:100AEB007F071205A6120FDF120E531210967854C1
:100AFB007C007D007B007A0079247E007F07120545
:100B0B00A6120BAA120F178F23120CE1782B7C0065
:100B1B007D007E007F071205A67557FF7558167569
:100B2B0059E6755A00852B5B755C00852C5D755EEF
:100B3B0000852D5FE53175F003A42405F8860308C5
:100B4B00E6FA08E68B608A61F5627B007A007932FF
:100B5B001206CA7B007A007932E4F558FD120D6754
:100B6B007557FF7558167559FA755A00852E5B75B2
:100B7B005C00852F5D755E0085305FAF23EF33958D
:100B8B00E0F5608F617B007A0079431206CA7B0027
:100B9B007A007943755801E4FD120D67020B0FE4DF
:100BAB00FD7F8E12105AE55975F00A84C454F0FF7C
:100BBB00E55975F00A84E5F04FFD7F8012105AE578
:100BCB005875F00A84C454F0FFE55875F00A84E5B3
:100BDB00F04FFD7F8212105AE55775F00A84C4540A
:100BEB00F0FFE55775F00A84E5F04FFD7F84121096
:100BFB005AE55675F00A84C454F0FFE55675F00AB1
:100C0B0084E5F04FFD7F8612105AE55575F00A8486
:100C1B00C454F0FFE55575F00A84E5F04FFD7F886D
:100C2B0012105AE55475F00A84C454F0FFE554755C
:100C3B00F00A84E5F04FFD7F8C12105AAD5A7F8A73
:100C4B0012105A7D807F8E02105A787FE4F6D8FD01
:100C5B0075817B020C9C020ADDE493A3F8E493A359
:100C6B004003F68001F208DFF48029E493A3F854E3
:100C7B0007240CC8C333C4540F4420C8834004F466
:100C8B0056800146F6DFE4800B0102040810204079
:100C9B0080901019E47E019360BCA3FF543F30E5B4
:100CAB0009541FFEE493A360010ECF54C025E060EE
:100CBB00A840B8E493A3FAE493A3F8E493A3C8C5BC
:100CCB0082C8CAC583CAF0A3C8C582C8CAC583CAAD
:100CDB00DFE9DEE780BE7F8D121082EFC4540F7503
:100CEB00F00AA4FEEF540F2EF5547F89121082EFF9
:100CFB00C4540F75F00AA4FEEF540F2EF5557F87E1
:100D0B00121082EFC4540F75F00AA4FEEF540F2E8D
:100D1B00F5567F85121082EFC4540F75F00AA4FEAE
:100D2B00EF540F2EF5577F83121082EFC4540F75BB
:100D3B00F00AA4FEEF540F2EF5587F81121082EFAC
:100D4B00C4540F75F00AA4FEEF540F2EF5597F8B88
:100D5B001210828F5A7B007A007954228B548A5559
:100D6B0089568D57E55825E0120F96E4F559AB548B
:100D7B00AA55A9568559827583001205E5FF601D9A
:100D8B00C374109557FEE559C39E5011EF75F010C3
:100D9B00A424B6F9740E121076055980D1E55825A6
:100DAB00E004120F96E4F559AB54AA55A956855990
:100DBB00827583001205E5FF601DC374109557FE05
:100DCB00E559C39E5011EF75F010A424BEF9740EB3
:100DDB00121076055980D122C0E0C0F0C083C082CA
:100DEB00C0D075D000C000C001C002C003C004C099
:100DFB0005C006C007758A66758CFC752200E52256
:100E0B0075F003A42470F8860308E6FA08E64A4B4B
:100E1B006012E52275F003A42470F808E6FA08E6E0
:100E2B00F91206680522E522C3940440D1D007D0FD
:100E3B0006D005D004D003D002D001D000D0D0D042
:100E4B0082D083D0F0D0E03278557C007D007BFFE0
:100E5B007A1679AC7E007F101205A678657C007D32
:100E6B00007BFF7A1679BC7E007F021205A67B0001
:100E7B007A0079657D021210ADE4F5547B007A009F
:100E8B0079557D1012107D0554E554C3944040EC08
:100E9B00228B678A6889698D6A12108D7F78120F91
:100EAB00461210697F003000027F40120F4612106D
:100EBB0069E4F56BE56BC3956A501AAB67AA68A931
:100ECB0069856B827583001205E5FF120F461210C0
:100EDB0069056B80DF020003E4F555F557F556C243
:100EEB00ECD2EC1210A3A2ECE433F557AF56A807E3
:100EFB00088002C333D8FCF55742551210A8D2EC28
:100F0B000556E556C3940840D6AF55221210467FBE
:100F1B00CC120FBB7F44120FBB1210467FCC120FAB
:100F2B00BB7FBE120FBB120EE38F54120EE3EFC446
:100F3B0054F0FFE554C4540F4FFF22AD07E4FC7E81
:100F4B00007480A804088006CEA2E713CE13D8F84D
:100F5B00FFEDFBEF5BD37001C39296D297C2970C58
:100F6B00BC08DC22EFB40A07740D120F7A740A3036
:100F7B009811A899B8130CC2983098FDA899C298EB
:100F8B00B811F63099FDC299F59922FFE55775F026
:100F9B0008A4FDEF24B0F55AED540FF55BEDC454E6
:100FAB000F2410F55C7B007A00795A7D030210AD9B
:100FBB008F55E4F556C2EC1210A3E5551392ECE5F0
:100FCB0055C313F5551210A8D2EC0556E556C3942C
:100FDB000840E22278547C007D007BFF7A1679A6CC
:100FEB007E007F061205A67B007A0079547D0602EF
:100FFB0010ADE4FFFE30E80DA8067401088002C3B3
:10100B0033D8FC4207D2B7C2B70EBE08E822150888
:10101B00FF16CAFF16CEFF16D2FF16D6FF16DAFF43
:10102B0016DEFF16E200C2B7E4FEEF1392E8D2B76A
:10103B00C2B7EFC313FF0EBE08F022C2EC12109D15
:10104B00D2EC1210A8A2EC920012109DA200228DDD
:10105B005BD2E9121031AF5B121031C2E922D2968A
:10106B00D297A2969201C297A2012235F0FA7BFF8A
:10107B007D08D200020E9CD2E9121031120FFDC274
:10108B00E922D297D296C296C29722C2E9C2B7C2C0
:10109B00E822007FDADFFE227F02DFFE227F19DFEC
:1010AB00FE22C200020E9C256C64000000000000B2
:1010BB000000000000000000000000000000F8002D
:1010CB00000000000000333000000000100C061080
:1010DB000C0600000000000000000040C07840C07B
:1010EB00784000043F04043F040400007088FC08AF
:1010FB00300000001820FF211E0000F008F000E077
:10110B0018000000211C031E211E0000F00888702F
:10111B000000001E2123241927211010160E000099
:10112B000000000000000000000000000000E018BC
:10113B00040200000000071820400000020418E021
:10114B000000000040201807000000404080F080A5
:10115B004040000202010F01020200000000F000FB
:10116B000000000101011F0101010000000000004F
:10117B0000000080B07000000000000000000000C4
:10118B00000000000101010101010100000000004D
:10119B000000000030300000000000000000008064
:1011AB00601804006018060100000000E010080839
:1011BB0010E000000F102020100F00001010F8009E
:1011CB000000000020203F202000000070080808CD
:1011DB0088700000302824222130000030088888D5
:1011EB004830000018202020110E000000C02010F5
:1011FB00F8000000070424243F240000F808888826
:10120B000808000019212020110E0000E01088882A
:10121B00180000000F112020110E0000380808C81C
:10122B003808000000003F0000000000708808082C
:10123B00887000001C222121221C0000E0100808ED
:10124B0010E0000000312222110F00000000C0C08E
:10125B0000000000000030300000000000008000A3
:10126B0000000000008060000000000000804020B3
:10127B0010080000010204081020004040404040CC
:10128B00404000040404040404040000081020403F
:10129B0080000000201008040201000070480808BC
:1012AB0008F0000000003036010000C030C828E80C
:1012BB0010E0000718272423140B000000C038E0AF
:1012CB00000000203C23020227382008F888888879
:1012DB00700000203F202020110E00C030080808AD
:1012EB00083800071820202010080008F808080804
:1012FB0010E000203F202020100F0008F88888E81D
:10130B00081000203F20202320180008F88888E8C8
:10131B00081000203F200003000000C03008080820
:10132B0038000007182020221E020008F8080000D1
:10133B0008F808203F210101213F20000808F80888
:10134B000800000020203F2020000000000808F8C3
:10135B00080800C08080807F00000008F888C02843
:10136B00180800203F20012638200008F80800004C
:10137B00000000203F20202020300008F8F800F863
:10138B00F80800203F003F003F200008F830C00065
:10139B0008F808203F200007183F00E01008080855
:1013AB0010E0000F10202020100F0008F80808088C
:1013BB0008F000203F210101010000E0100808089F
:1013CB0010E0000F18242438504F0008F888888844
:1013DB00887000203F2000030C3020007088080824
:1013EB000838000038202121221C00180808F808B2
:1013FB000818000000203F2000000008F80800003B
:10140B0008F808001F202020201F00087888000003
:10141B00C83808000007380E010000F80800F80073
:10142B0008F800033C0700073C030008186880809D
:10143B0068180820302C03032C30200838C800C84B
:10144B003808000000203F2000000010080808C8E2
:10145B003808002038262120201800000000FE024A
:10146B000202000000007F40404000000C30C00032
:10147B00000000000000010638C00000020202FE5E
:10148B00000000004040407F00000000000402020A
:10149B00020400000000000000000000000000003B
:1014AB000000008080808080808080000202040029
:1014BB0000000000000000000000000000808080A1
:1014CB008000000019242222223F2008F80080808F
:1014DB00000000003F112020110E00000000808052
:1014EB00800000000E1120202011000000008080E1
:1014FB0088F800000E112020103F20000080808013
:10150B00800000001F222222221300008080F0881E
:10151B008888180020203F20200000000080808059
:10152B00808000006B94949493600008F800808096
:10153B00800000203F210000203F20008098980071
:10154B000000000020203F202000000000008098B9
:10155B0098000000C08080807F000008F8000080A9
:10156B00808000203F24022D302000000808F80066
:10157B000000000020203F20200000808080808021
:10158B00808000203F20003F20003F808000808033
:10159B00800000203F210000203F20000080808041
:1015AB00800000001F202020201F008080008080F2
:1015BB0000000080FFA12020110E000000008080A1
:1015CB00808000000E112020A0FF80808080008092
:1015DB0080800020203F21200001000000808080BF
:1015EB008080000033242424241900008080E080B4
:1015FB008000000000001F20200000808000000001
:10160B00808000001F202020103F20808080000061
:10161B0080808000010E3008060100808000800071
:10162B008080800F300C030C300F00008080008016
:10163B008080000020312E0E312000808080000041
:10164B0080808080818E70180601000080808080F1
:10165B008080000021302C2221300000000000800F
:10166B007C020200000000003F404000000000FF31
:10167B0000000000000000FF0000000002027C8060
:10168B000000000040403F00000000000601010286
:10169B000204040000000000000000AEA1C88D147D
:1016AB00AF00000000000000000000000000000080
:1016BB000020000000000000000000000000004DB2
:1016CB006F6E00547565005765640054687500466D
:1016DB007269005361740053756E003230253032DD
:1016EB00642F253032642F2530326420257300257A
:1016FB003032643A253032643A2530326420546DEE
:0C170B00703A2564001907020F2D00033E
:00000001FF
