:100000000200F4EF8DF0A4A8F0CF8CF0A428CE8DE0
:10001000F0A42EFE2275F008758200EF2FFFEE335C
:10002000FECD33CDCC33CCC58233C5829BED9AEC6B
:1000300099E58298400CF582EE9BFEED9AFDEC99D5
:10004000FC0FD5F0D6E4CEFBE4CDFAE4CCF9A882DF
:1000500022B800C1B90059BA002DEC8BF084CFCE84
:10006000CDFCE5F0CBF97818EF2FFFEE33FEED3342
:10007000FDEC33FCEB33FB10D703994004EB99FB09
:100080000FD8E5E4F9FA227818EF2FFFEE33FEEDF2
:1000900033FDEC33FCC933C910D7059BE99A4007FF
:1000A000EC9BFCE99AF90FD8E0E4C9FAE4CCFB2216
:1000B00075F010EF2FFFEE33FEED33FDCC33CCC8DF
:1000C00033C810D7079BEC9AE899400AED9BFDECEA
:1000D0009AFCE899F80FD5F0DAE4CDFBE4CCFAE429
:1000E000C8F922EB9FF5F0EA9E42F0E99D42F0E864
:1000F0009C45F022787FE4F6D8FD75812302013B10
:1001000002026EE493A3F8E493A34003F68001F2A5
:1001100008DFF48029E493A3F85407240CC8C33300
:10012000C4540F4420C8834004F456800146F6DFCF
:10013000E4800B01020408102040809002EBE47E72
:10014000019360BCA3FF543F30E509541FFEE493C4
:10015000A360010ECF54C025E060A840B8E493A38B
:10016000FAE493A3F8E493A3C8C582C8CAC583CAB6
:10017000F0A3C8C582C8CAC583CADFE9DEE780BE6E
:10018000E4F51B7420251BF8E6F5A020A4177F0AD0
:100190007E0012030820A40D30A4FDE51B25E025F8
:1001A000E02405FF2220A5177F0A7E001203082005
:1001B000A50D30A5FDE51B25E025E02406FF222046
:1001C000A6177F0A7E0012030820A60D30A6FDE5C3
:1001D0001B25E025E02407FF2220A7177F0A7E00C9
:1001E00012030820A70D30A7FDE51B25E025E0241C
:1001F00008FF22051BE51BC3940440877F00228F64
:100200001E8E1D8D1C8C1BE4F51F7412251FF8E437
:10021000F6051FE51FB408F2751F07E47B0AFAF91B
:10022000F8AF1EAE1DAD1CAC1B12005174082BF8AC
:10023000E6FF7412251FF8A607AF1EAE1DAD1CAC5D
:100240001BE47B0AFAF9F81200518F1E8E1D8D1CDB
:100250008C1BE51F6017E4FFFEFDFCAB1EAA1DA969
:100260001CA81BC31200E36004151F80AE22E4F536
:100270001A12033CAF1AE4FCFDFE1201FF120180CA
:100280008F1AE51A6015E4FCFDFE1201FFAF1A7E1D
:10029000007C037DE81200031202A01202CB80DD75
:1002A0008E1B8F1CE51C451B6020C2EE7F017E006B
:1002B00012031DD2EE7F137E0012031D74FE251C57
:1002C000F51C74FF351BF51B80DA22E4F51B741254
:1002D000251BF8E6FDAF1B12032E7F017E001203E3
:1002E00008051BE51BC3940840E4220A083F065B8F
:1002F0004F666D7D077F6F08120000000000000050
:10030000000420FEFDFBF700EF4E6010007D027C34
:10031000C7DCFEDDFCEF1F70EF1E80EC22EF4E60AD
:100320000C007D2BDDFEEF1F70F31E80F022EF33FB
:10033000333354F85390C742908D8022C2B6C2B472
:01034000229A
:00000001FF
