:100000000200E275F008758200EF2FFFEE33FECD9F
:1000100033CDCC33CCC58233C5829BED9AEC99E5C8
:100020008298400CF582EE9BFEED9AFDEC99FC0F58
:10003000D5F0D6E4CEFBE4CDFAE4CCF9A88222B820
:1000400000C1B90059BA002DEC8BF084CFCECDFCA5
:10005000E5F0CBF97818EF2FFFEE33FEED33FDEC32
:1000600033FCEB33FB10D703994004EB99FB0FD81B
:10007000E5E4F9FA227818EF2FFFEE33FEED33FDB9
:10008000EC33FCC933C910D7059BE99A4007EC9BB8
:10009000FCE99AF90FD8E0E4C9FAE4CCFB2275F048
:1000A00010EF2FFFEE33FEED33FDCC33CCC833C859
:1000B00010D7079BEC9AE899400AED9BFDEC9AFC5F
:1000C000E899F80FD5F0DAE4CDFBE4CCFAE4C8F90E
:1000D00022EB9FF5F0EA9E42F0E99D42F0E89C4554
:1000E000F022787FE4F6D8FD75812302012902020F
:1000F0005CE493A3F8E493A34003F68001F208DFE5
:10010000F48029E493A3F85407240CC8C333C454DF
:100110000F4420C8834004F456800146F6DFE48093
:100120000B01020408102040809002A0E47E01939D
:1001300060BCA3FF543F30E509541FFEE493A36065
:10014000010ECF54C025E060A840B8E493A3FAE4C0
:1001500093A3F8E493A3C8C582C8CAC583CAF0A311
:10016000C8C582C8CAC583CADFE9DEE780BEE4F538
:100170001B7420251BF8E6F5A020A4177F0A7E003B
:100180001202BD20A40D30A4FDE51B25E025E024CE
:1001900005FF2220A5177F0A7E001202BD20A50DB3
:1001A00030A5FDE51B25E025E02406FF2220A6174B
:1001B0007F0A7E001202BD20A60D30A6FDE51B259C
:1001C000E025E02407FF2220A7177F0A7E00120205
:1001D000BD20A70D30A7FDE51B25E025E02408FF85
:1001E00022051BE51BC3940440877F00228F1E8ECF
:1001F0001D8D1C8C1BE4F51F7412251FF8E4F605F9
:100200001FE51FB408F2751F07E47B0AFAF9F8AF7F
:100210001EAE1DAD1CAC1B12003F74082BF8E6FF90
:100220007412251FF8A607AF1EAE1DAD1CAC1BE453
:100230007B0AFAF9F812003F8F1E8E1D8D1C8C1B55
:10024000E51F6017E4FFFEFDFCAB1EAA1DA91CA85C
:100250001BC31200D16004151F80AE22E4F51A12F0
:1002600002E5AF1AE4FCFDFE1201ED12016E8F1AD9
:10027000E51A6007E4FCFDFE1201ED12028080EB3E
:10028000E4F51B7412251BF8E6FDAF1B1202D77FA5
:10029000017E001202BD051BE51BC3940840E42249
:1002A0000A083F065B4F666D7D077F6F08120000EE
:1002B0000000000000000420FEFDFBF700D3EF94D7
:1002C00000EE94004010007D027CC7DCFEDDFCEFF8
:1002D0001F70EA1E80E722EF33333354F85390C780
:0A02E00042908D8022C2B6C2B42203
:00000001FF
