:1000000002008B12003B5002B28012004F5002B22D
:10001000811200635002B28212007750E6B28380F0
:10002000E2D3EF9400EE94004010007D027CC7DC28
:10003000FEDDFCEF1F70EA1E80E72220EA0F7F0A38
:100040007E0012002120EA0530EAFDD322C32220DF
:10005000EB0F7F0A7E0012002120EB0530EBFDD371
:1000600022C32220B20F7F0A7E0012002120B20597
:1000700030B2FDD322C32220B30F7F0A7E001200CC
:100080002120B30530B3FDD322C322787FE4F6D814
:07009000FD7581070200036A
:00000001FF
