:03000000020148B2
:10000B000201D4BC000BBE0029EF8DF084FFADF0D4
:10001B0022E4CCF875F008EF2FFFEE33FEEC33FC47
:10002B00EE9DEC984005FCEE9DFE0FD5F0E9E4CE7D
:10003B00FD22EDF8F5F0EE8420D21CFEADF075F04C
:10004B0008EF2FFFED33FD4007985006D5F0F22255
:10005B00C398FD0FD5F0EA2275F008758200EF2FDB
:10006B00FFEE33FECD33CDCC33CCC58233C5829B73
:10007B00ED9AEC99E58298400CF582EE9BFEED9A99
:10008B00FDEC99FC0FD5F0D6E4CEFBE4CDFAE4CC35
:10009B00F9A88222B800C1B90059BA002DEC8BF037
:1000AB0084CFCECDFCE5F0CBF97818EF2FFFEE33F4
:1000BB00FEED33FDEC33FCEB33FB10D7039940041F
:1000CB00EB99FB0FD8E5E4F9FA227818EF2FFFEE46
:1000DB0033FEED33FDEC33FCC933C910D7059BE977
:1000EB009A4007EC9BFCE99AF90FD8E0E4C9FAE4D3
:1000FB00CCFB2275F010EF2FFFEE33FEED33FDCC72
:10010B0033CCC833C810D7079BEC9AE899400AED5B
:10011B009BFDEC9AFCE899F80FD5F0DAE4CDFBE403
:10012B00CCFAE4C8F922EB9FF5F0EA9E42F0E99D88
:10013B0042F0E89C45F0228A838982E473787FE45D
:10014B00F6D8FD75813302018F020393E493A3F874
:10015B00E493A34003F68001F208DFF48029E493D3
:10016B00A3F85407240CC8C333C4540F4420C883CA
:10017B004004F456800146F6DFE4800B01020408CC
:10018B001020408090035CE47E019360BCA3FF547D
:10019B003F30E509541FFEE493A360010ECF54C01A
:1001AB0025E060A840B8E493A3FAE493A3F8E493A2
:1001BB00A3C8C582C8CAC583CAF0A3C8C582C8CAAA
:1001CB00C583CADFE9DEE780BEC0E0C0F0C083C0F4
:1001DB0082C0D075D000C000C001C002C003C004F3
:1001EB00C005C006C007758A66758CFC752700E5CF
:1001FB002775F003A4241BF8860308E6FA08E64AE1
:10020B004B6012E52775F003A4241BF808E6FA08E7
:10021B00E6F91201420527E527C3940440D1D00724
:10022B00D006D005D004D003D002D001D000D0D05E
:10023B00D082D083D0F0D0E0328F2B8E2A8D298CB8
:10024B0028E4F52C7413252CF8E4F6052CE52CB4D6
:10025B0008F2752C07E47B0AFAF9F8AF2BAE2AAD3E
:10026B0029AC2812009F74092BF8E6FF7413252C78
:10027B00F8A607AF2BAE2AAD29AC28E47B0AFAF916
:10028B00F812009F8F2B8E2A8D298C28E52C601756
:10029B00E4FFFEFDFCAB2BAA2AA929A828C3120157
:1002AB00316004152C80AE228B288A29892AE4FF21
:1002BB00EF75F003A4241BF8860308E6FA08E6F9A9
:1002CB00E528852983852A826B7008E9658270038E
:1002DB00EA65837002C3220FBF04D5E4FFEF75F00C
:1002EB0003A4241BF8860308E6FA08E64A4B7016AB
:1002FB00AA29A92AEF75F003A4241BF8A62808A69F
:10030B000208A601D3220FBF04D3C3228B288A294C
:10031B00892AE4FFEF75F003A4241BF8860308E693
:10032B00FA08E6F9E528852983852A826B7008E9A6
:10033B0065827003EA65837012EF75F003A4241BCA
:10034B00F87600087600087600D3220FBF04C5C3E9
:10035B00220C1B0000000000000000000000000247
:10036B002D0000022F00000A093F065B4F666D7DD2
:10037B00077F6F0813000000000000000001080059
:10038B00013101023201F40012045650091204DD4E
:10039B001204E81204C312046A50141204DD12048E
:1003AB00F37F927E7A7D087C001202441204A51220
:1003BB00047E50D41204E81204F31204D180C9E570
:1003CB0033B4F415E532B40110E531F4F580E531C1
:1003DB0025E0F5317003753101E5331533700215E6
:1003EB0032E533453270067532017533F422AE2F88
:1003FB00AF307C007D0312000EED4C7004D2EE800A
:10040B0002C2EE0530E5307002052FB4E90AE52F84
:10041B00B40305E4F52FF53022D3EF9400EE9400EE
:10042B004010007D027CC7DCFEDDFCEF1F70EA1E76
:10043B0080E72274132508F8E6FDAF081204B5E532
:10044B0008B40704E4F5082205082220EA0F7F0A06
:10045B007E0012042420EA0530EAFDD322C32220B9
:10046B00EB0F7F0A7E0012042420EB0530EBFDD34B
:10047B0022C32220B20F7F0A7E0012042420B20571
:10048B0030B2FDD322C322D2AFD2A95389F0438914
:10049B0001758A66758CFCD28C22C2B6C2B412046A
:1004AB00927BFF7A04793E0202B3EF33333354F875
:1004BB005390C742908D8022D2B41204927BFF7A64
:1004CB000379CA0202B31204927BFF7A0379F90211
:1004DB0002B3C2EE7BFF7A0379F9020317D2B67B24
:1004EB00FF7A04793E020317C2B47BFF7A0379CA01
:0304FB00020317E2
:00000001FF
